{
  "contracts/Vesting.sol": {
    "VestingContract": {
      "abi": [
        {
          "inputs": [
            {
              "internalType": "contract ERC20",
              "name": "_token",
              "type": "address"
            }
          ],
          "stateMutability": "nonpayable",
          "type": "constructor"
        },
        {
          "inputs": [
            {
              "internalType": "address",
              "name": "owner",
              "type": "address"
            }
          ],
          "name": "OwnableInvalidOwner",
          "type": "error"
        },
        {
          "inputs": [
            {
              "internalType": "address",
              "name": "account",
              "type": "address"
            }
          ],
          "name": "OwnableUnauthorizedAccount",
          "type": "error"
        },
        {
          "anonymous": false,
          "inputs": [
            {
              "indexed": false,
              "internalType": "address",
              "name": "beneficiary",
              "type": "address"
            },
            {
              "indexed": false,
              "internalType": "enum VestingContract.Role",
              "name": "role",
              "type": "uint8"
            },
            {
              "indexed": false,
              "internalType": "uint256",
              "name": "totalAmount",
              "type": "uint256"
            }
          ],
          "name": "BeneficiaryAdded",
          "type": "event"
        },
        {
          "anonymous": false,
          "inputs": [
            {
              "indexed": true,
              "internalType": "address",
              "name": "previousOwner",
              "type": "address"
            },
            {
              "indexed": true,
              "internalType": "address",
              "name": "newOwner",
              "type": "address"
            }
          ],
          "name": "OwnershipTransferred",
          "type": "event"
        },
        {
          "anonymous": false,
          "inputs": [
            {
              "indexed": false,
              "internalType": "address",
              "name": "beneficiary",
              "type": "address"
            },
            {
              "indexed": false,
              "internalType": "uint256",
              "name": "amount",
              "type": "uint256"
            }
          ],
          "name": "TokensReleased",
          "type": "event"
        },
        {
          "anonymous": false,
          "inputs": [
            {
              "indexed": false,
              "internalType": "uint256",
              "name": "startTime",
              "type": "uint256"
            }
          ],
          "name": "VestingStarted",
          "type": "event"
        },
        {
          "inputs": [],
          "name": "PARTNER_CLIFF_DURATION",
          "outputs": [
            {
              "internalType": "uint256",
              "name": "",
              "type": "uint256"
            }
          ],
          "stateMutability": "view",
          "type": "function"
        },
        {
          "inputs": [],
          "name": "PARTNER_PERCENTAGE",
          "outputs": [
            {
              "internalType": "uint256",
              "name": "",
              "type": "uint256"
            }
          ],
          "stateMutability": "view",
          "type": "function"
        },
        {
          "inputs": [],
          "name": "PARTNER_VESTING_DURATION",
          "outputs": [
            {
              "internalType": "uint256",
              "name": "",
              "type": "uint256"
            }
          ],
          "stateMutability": "view",
          "type": "function"
        },
        {
          "inputs": [],
          "name": "TEAM_CLIFF_DURATION",
          "outputs": [
            {
              "internalType": "uint256",
              "name": "",
              "type": "uint256"
            }
          ],
          "stateMutability": "view",
          "type": "function"
        },
        {
          "inputs": [],
          "name": "TEAM_PERCENTAGE",
          "outputs": [
            {
              "internalType": "uint256",
              "name": "",
              "type": "uint256"
            }
          ],
          "stateMutability": "view",
          "type": "function"
        },
        {
          "inputs": [],
          "name": "TEAM_VESTING_DURATION",
          "outputs": [
            {
              "internalType": "uint256",
              "name": "",
              "type": "uint256"
            }
          ],
          "stateMutability": "view",
          "type": "function"
        },
        {
          "inputs": [],
          "name": "USER_CLIFF_DURATION",
          "outputs": [
            {
              "internalType": "uint256",
              "name": "",
              "type": "uint256"
            }
          ],
          "stateMutability": "view",
          "type": "function"
        },
        {
          "inputs": [],
          "name": "USER_PERCENTAGE",
          "outputs": [
            {
              "internalType": "uint256",
              "name": "",
              "type": "uint256"
            }
          ],
          "stateMutability": "view",
          "type": "function"
        },
        {
          "inputs": [],
          "name": "USER_VESTING_DURATION",
          "outputs": [
            {
              "internalType": "uint256",
              "name": "",
              "type": "uint256"
            }
          ],
          "stateMutability": "view",
          "type": "function"
        },
        {
          "inputs": [
            {
              "internalType": "address",
              "name": "beneficiary",
              "type": "address"
            },
            {
              "internalType": "uint256",
              "name": "totalAmount",
              "type": "uint256"
            }
          ],
          "name": "addBeneficiary",
          "outputs": [],
          "stateMutability": "nonpayable",
          "type": "function"
        },
        {
          "inputs": [],
          "name": "owner",
          "outputs": [
            {
              "internalType": "address",
              "name": "",
              "type": "address"
            }
          ],
          "stateMutability": "view",
          "type": "function"
        },
        {
          "inputs": [
            {
              "internalType": "address",
              "name": "beneficiary",
              "type": "address"
            }
          ],
          "name": "releasableAmount",
          "outputs": [
            {
              "internalType": "uint256",
              "name": "",
              "type": "uint256"
            }
          ],
          "stateMutability": "view",
          "type": "function"
        },
        {
          "inputs": [],
          "name": "releaseTokens",
          "outputs": [],
          "stateMutability": "nonpayable",
          "type": "function"
        },
        {
          "inputs": [],
          "name": "renounceOwnership",
          "outputs": [],
          "stateMutability": "nonpayable",
          "type": "function"
        },
        {
          "inputs": [
            {
              "internalType": "address",
              "name": "",
              "type": "address"
            }
          ],
          "name": "roles",
          "outputs": [
            {
              "internalType": "enum VestingContract.Role",
              "name": "",
              "type": "uint8"
            }
          ],
          "stateMutability": "view",
          "type": "function"
        },
        {
          "inputs": [
            {
              "internalType": "address",
              "name": "beneficiary",
              "type": "address"
            },
            {
              "internalType": "enum VestingContract.Role",
              "name": "role",
              "type": "uint8"
            }
          ],
          "name": "setRole",
          "outputs": [],
          "stateMutability": "nonpayable",
          "type": "function"
        },
        {
          "inputs": [],
          "name": "startVesting",
          "outputs": [],
          "stateMutability": "nonpayable",
          "type": "function"
        },
        {
          "inputs": [],
          "name": "token",
          "outputs": [
            {
              "internalType": "contract ERC20",
              "name": "",
              "type": "address"
            }
          ],
          "stateMutability": "view",
          "type": "function"
        },
        {
          "inputs": [
            {
              "internalType": "address",
              "name": "newOwner",
              "type": "address"
            }
          ],
          "name": "transferOwnership",
          "outputs": [],
          "stateMutability": "nonpayable",
          "type": "function"
        },
        {
          "inputs": [
            {
              "internalType": "address",
              "name": "",
              "type": "address"
            }
          ],
          "name": "vestingSchedules",
          "outputs": [
            {
              "internalType": "uint256",
              "name": "totalAmount",
              "type": "uint256"
            },
            {
              "internalType": "uint256",
              "name": "releasedAmount",
              "type": "uint256"
            },
            {
              "internalType": "uint256",
              "name": "startTime",
              "type": "uint256"
            },
            {
              "internalType": "uint256",
              "name": "cliffTime",
              "type": "uint256"
            },
            {
              "internalType": "uint256",
              "name": "duration",
              "type": "uint256"
            }
          ],
          "stateMutability": "view",
          "type": "function"
        },
        {
          "inputs": [],
          "name": "vestingStarted",
          "outputs": [
            {
              "internalType": "bool",
              "name": "",
              "type": "bool"
            }
          ],
          "stateMutability": "view",
          "type": "function"
        }
      ],
      "evm": {
        "bytecode": {
          "linkReferences": {},
          "object": "60806040526000600160146101000a81548160ff0219169083151502179055503480156200002c57600080fd5b5060405162001f0f38038062001f0f833981810160405281019062000052919062000264565b33600073ffffffffffffffffffffffffffffffffffffffff168173ffffffffffffffffffffffffffffffffffffffff1603620000c85760006040517f1e4fbdf7000000000000000000000000000000000000000000000000000000008152600401620000bf9190620002a7565b60405180910390fd5b620000d9816200012260201b60201c565b5080600160006101000a81548173ffffffffffffffffffffffffffffffffffffffff021916908373ffffffffffffffffffffffffffffffffffffffff16021790555050620002c4565b60008060009054906101000a900473ffffffffffffffffffffffffffffffffffffffff169050816000806101000a81548173ffffffffffffffffffffffffffffffffffffffff021916908373ffffffffffffffffffffffffffffffffffffffff1602179055508173ffffffffffffffffffffffffffffffffffffffff168173ffffffffffffffffffffffffffffffffffffffff167f8be0079c531659141344cd1fd0a4f28419497f9722a3daafe3b4186f6b6457e060405160405180910390a35050565b600080fd5b600073ffffffffffffffffffffffffffffffffffffffff82169050919050565b60006200021882620001eb565b9050919050565b60006200022c826200020b565b9050919050565b6200023e816200021f565b81146200024a57600080fd5b50565b6000815190506200025e8162000233565b92915050565b6000602082840312156200027d576200027c620001e6565b5b60006200028d848285016200024d565b91505092915050565b620002a1816200020b565b82525050565b6000602082019050620002be600083018462000296565b92915050565b611c3b80620002d46000396000f3fe608060405234801561001057600080fd5b50600436106101375760003560e01c80638da5cb5b116100b8578063de7c2ed21161007c578063de7c2ed2146102f6578063deb36e3214610314578063f2fde38b1461031e578063f998c8e81461033a578063fc0c546a14610358578063fdb20ccb1461037657610137565b80638da5cb5b1461026457806396074e7014610282578063993746421461029e578063a334ed02146102ce578063a96f8668146102ec57610137565b8063702f63e6116100ff578063702f63e6146101e2578063715018a614610200578063796454161461020a57806384d9390a146102285780638b3834721461024657610137565b80631726cbc81461013c5780631f85612a1461016c578063409c881c1461018a57806355db189b146101a8578063571c3e60146101c6575b600080fd5b6101566004803603810190610151919061128d565b6103aa565b60405161016391906112d3565b60405180910390f35b61017461048c565b60405161018191906112d3565b60405180910390f35b610192610494565b60405161019f91906112d3565b60405180910390f35b6101b061049c565b6040516101bd91906112d3565b60405180910390f35b6101e060048036038101906101db9190611313565b6104a4565b005b6101ea610567565b6040516101f791906112d3565b60405180910390f35b61020861056c565b005b610212610580565b60405161021f91906112d3565b60405180910390f35b610230610587565b60405161023d91906112d3565b60405180910390f35b61024e61058c565b60405161025b91906112d3565b60405180910390f35b61026c610591565b6040516102799190611362565b60405180910390f35b61029c600480360381019061029791906113a9565b6105ba565b005b6102b860048036038101906102b3919061128d565b610a9a565b6040516102c59190611460565b60405180910390f35b6102d6610aba565b6040516102e391906112d3565b60405180910390f35b6102f4610ac1565b005b6102fe610d9a565b60405161030b91906112d3565b60405180910390f35b61031c610da2565b005b6103386004803603810190610333919061128d565b610e4d565b005b610342610ed3565b60405161034f9190611496565b60405180910390f35b610360610ee6565b60405161036d9190611510565b60405180910390f35b610390600480360381019061038b919061128d565b610f0c565b6040516103a195949392919061152b565b60405180910390f35b600080600260008473ffffffffffffffffffffffffffffffffffffffff1673ffffffffffffffffffffffffffffffffffffffff16815260200190815260200160002090508060030154421015610404576000915050610487565b8060040154816002015461041891906115ad565b421061043a578060010154816000015461043291906115e1565b915050610487565b600081600201544261044c91906115e1565b9050600082600401548284600001546104659190611615565b61046f9190611686565b905082600101548161048191906115e1565b93505050505b919050565b6301e1338081565b63018b820081565b6303c2670081565b6104ac610f42565b600160149054906101000a900460ff16156104fc576040517f08c379a00000000000000000000000000000000000000000000000000000000081526004016104f39061173a565b60405180910390fd5b80600360008473ffffffffffffffffffffffffffffffffffffffff1673ffffffffffffffffffffffffffffffffffffffff16815260200190815260200160002060006101000a81548160ff0219169083600381111561055e5761055d6113e9565b5b02179055505050565b603281565b610574610f42565b61057e6000610fc9565b565b624f1a0081565b601981565b601981565b60008060009054906101000a900473ffffffffffffffffffffffffffffffffffffffff16905090565b6105c2610f42565b600160149054906101000a900460ff1615610612576040517f08c379a0000000000000000000000000000000000000000000000000000000008152600401610609906117cc565b60405180910390fd5b60006003811115610626576106256113e9565b5b600360008473ffffffffffffffffffffffffffffffffffffffff1673ffffffffffffffffffffffffffffffffffffffff16815260200190815260200160002060009054906101000a900460ff166003811115610685576106846113e9565b5b036106c5576040517f08c379a00000000000000000000000000000000000000000000000000000000081526004016106bc90611838565b60405180910390fd5b6000600260008473ffffffffffffffffffffffffffffffffffffffff1673ffffffffffffffffffffffffffffffffffffffff168152602001908152602001600020600001541461074a576040517f08c379a0000000000000000000000000000000000000000000000000000000008152600401610741906118a4565b60405180910390fd5b600080600060016003811115610763576107626113e9565b5b600360008773ffffffffffffffffffffffffffffffffffffffff1673ffffffffffffffffffffffffffffffffffffffff16815260200190815260200160002060009054906101000a900460ff1660038111156107c2576107c16113e9565b5b036107de5763018b820092506303c267009150603290506108f7565b600260038111156107f2576107f16113e9565b5b600360008773ffffffffffffffffffffffffffffffffffffffff1673ffffffffffffffffffffffffffffffffffffffff16815260200190815260200160002060009054906101000a900460ff166003811115610851576108506113e9565b5b0361086c57624f1a0092506301e133809150601990506108f6565b60038081111561087f5761087e6113e9565b5b600360008773ffffffffffffffffffffffffffffffffffffffff1673ffffffffffffffffffffffffffffffffffffffff16815260200190815260200160002060009054906101000a900460ff1660038111156108de576108dd6113e9565b5b036108f557624f1a0092506301e133809150601990505b5b5b6000606482866109079190611615565b6109119190611686565b90506040518060a0016040528082815260200160008152602001600081526020016000815260200184815250600260008873ffffffffffffffffffffffffffffffffffffffff1673ffffffffffffffffffffffffffffffffffffffff1681526020019081526020016000206000820151816000015560208201518160010155604082015181600201556060820151816003015560808201518160040155905050600160009054906101000a900473ffffffffffffffffffffffffffffffffffffffff1673ffffffffffffffffffffffffffffffffffffffff166323b872dd3330846040518463ffffffff1660e01b8152600401610a10939291906118c4565b6020604051808303816000875af1158015610a2f573d6000803e3d6000fd5b505050506040513d601f19601f82011682018060405250810190610a539190611927565b610a92576040517f08c379a0000000000000000000000000000000000000000000000000000000008152600401610a89906119a0565b60405180910390fd5b505050505050565b60036020528060005260406000206000915054906101000a900460ff1681565b624f1a0081565b600160149054906101000a900460ff16610b10576040517f08c379a0000000000000000000000000000000000000000000000000000000008152600401610b0790611a0c565b60405180910390fd5b6000600260003373ffffffffffffffffffffffffffffffffffffffff1673ffffffffffffffffffffffffffffffffffffffff16815260200190815260200160002090506000816000015411610b9a576040517f08c379a0000000000000000000000000000000000000000000000000000000008152600401610b9190611a78565b60405180910390fd5b6000816002015403610bcc57428160020181905550610bb83361108d565b42610bc391906115ad565b81600301819055505b8060030154421015610c13576040517f08c379a0000000000000000000000000000000000000000000000000000000008152600401610c0a90611ae4565b60405180910390fd5b6000610c1e336103aa565b905060008111610c63576040517f08c379a0000000000000000000000000000000000000000000000000000000008152600401610c5a90611b50565b60405180910390fd5b80826001016000828254610c7791906115ad565b92505081905550600160009054906101000a900473ffffffffffffffffffffffffffffffffffffffff1673ffffffffffffffffffffffffffffffffffffffff1663a9059cbb33836040518363ffffffff1660e01b8152600401610cdb929190611b70565b6020604051808303816000875af1158015610cfa573d6000803e3d6000fd5b505050506040513d601f19601f82011682018060405250810190610d1e9190611927565b610d5d576040517f08c379a0000000000000000000000000000000000000000000000000000000008152600401610d54906119a0565b60405180910390fd5b7fc7798891864187665ac6dd119286e44ec13f014527aeeb2b8eb3fd413df931793382604051610d8e929190611b70565b60405180910390a15050565b6301e1338081565b610daa610f42565b600160149054906101000a900460ff1615610dfa576040517f08c379a0000000000000000000000000000000000000000000000000000000008152600401610df190611be5565b60405180910390fd5b60018060146101000a81548160ff0219169083151502179055507f3930f04857ba592ba0a6a96942f8350c2415c0a4aa849021aeefee98bb55b12242604051610e4391906112d3565b60405180910390a1565b610e55610f42565b600073ffffffffffffffffffffffffffffffffffffffff168173ffffffffffffffffffffffffffffffffffffffff1603610ec75760006040517f1e4fbdf7000000000000000000000000000000000000000000000000000000008152600401610ebe9190611362565b60405180910390fd5b610ed081610fc9565b50565b600160149054906101000a900460ff1681565b600160009054906101000a900473ffffffffffffffffffffffffffffffffffffffff1681565b60026020528060005260406000206000915090508060000154908060010154908060020154908060030154908060040154905085565b610f4a611222565b73ffffffffffffffffffffffffffffffffffffffff16610f68610591565b73ffffffffffffffffffffffffffffffffffffffff1614610fc757610f8b611222565b6040517f118cdaa7000000000000000000000000000000000000000000000000000000008152600401610fbe9190611362565b60405180910390fd5b565b60008060009054906101000a900473ffffffffffffffffffffffffffffffffffffffff169050816000806101000a81548173ffffffffffffffffffffffffffffffffffffffff021916908373ffffffffffffffffffffffffffffffffffffffff1602179055508173ffffffffffffffffffffffffffffffffffffffff168173ffffffffffffffffffffffffffffffffffffffff167f8be0079c531659141344cd1fd0a4f28419497f9722a3daafe3b4186f6b6457e060405160405180910390a35050565b6000600160038111156110a3576110a26113e9565b5b600360008473ffffffffffffffffffffffffffffffffffffffff1673ffffffffffffffffffffffffffffffffffffffff16815260200190815260200160002060009054906101000a900460ff166003811115611102576111016113e9565b5b036111135763018b8200905061121d565b60026003811115611127576111266113e9565b5b600360008473ffffffffffffffffffffffffffffffffffffffff1673ffffffffffffffffffffffffffffffffffffffff16815260200190815260200160002060009054906101000a900460ff166003811115611186576111856113e9565b5b0361119657624f1a00905061121d565b6003808111156111a9576111a86113e9565b5b600360008473ffffffffffffffffffffffffffffffffffffffff1673ffffffffffffffffffffffffffffffffffffffff16815260200190815260200160002060009054906101000a900460ff166003811115611208576112076113e9565b5b0361121857624f1a00905061121d565b600090505b919050565b600033905090565b600080fd5b600073ffffffffffffffffffffffffffffffffffffffff82169050919050565b600061125a8261122f565b9050919050565b61126a8161124f565b811461127557600080fd5b50565b60008135905061128781611261565b92915050565b6000602082840312156112a3576112a261122a565b5b60006112b184828501611278565b91505092915050565b6000819050919050565b6112cd816112ba565b82525050565b60006020820190506112e860008301846112c4565b92915050565b600481106112fb57600080fd5b50565b60008135905061130d816112ee565b92915050565b6000806040838503121561132a5761132961122a565b5b600061133885828601611278565b9250506020611349858286016112fe565b9150509250929050565b61135c8161124f565b82525050565b60006020820190506113776000830184611353565b92915050565b611386816112ba565b811461139157600080fd5b50565b6000813590506113a38161137d565b92915050565b600080604083850312156113c0576113bf61122a565b5b60006113ce85828601611278565b92505060206113df85828601611394565b9150509250929050565b7f4e487b7100000000000000000000000000000000000000000000000000000000600052602160045260246000fd5b60048110611429576114286113e9565b5b50565b600081905061143a82611418565b919050565b600061144a8261142c565b9050919050565b61145a8161143f565b82525050565b60006020820190506114756000830184611451565b92915050565b60008115159050919050565b6114908161147b565b82525050565b60006020820190506114ab6000830184611487565b92915050565b6000819050919050565b60006114d66114d16114cc8461122f565b6114b1565b61122f565b9050919050565b60006114e8826114bb565b9050919050565b60006114fa826114dd565b9050919050565b61150a816114ef565b82525050565b60006020820190506115256000830184611501565b92915050565b600060a08201905061154060008301886112c4565b61154d60208301876112c4565b61155a60408301866112c4565b61156760608301856112c4565b61157460808301846112c4565b9695505050505050565b7f4e487b7100000000000000000000000000000000000000000000000000000000600052601160045260246000fd5b60006115b8826112ba565b91506115c3836112ba565b92508282019050808211156115db576115da61157e565b5b92915050565b60006115ec826112ba565b91506115f7836112ba565b925082820390508181111561160f5761160e61157e565b5b92915050565b6000611620826112ba565b915061162b836112ba565b9250828202611639816112ba565b915082820484148315176116505761164f61157e565b5b5092915050565b7f4e487b7100000000000000000000000000000000000000000000000000000000600052601260045260246000fd5b6000611691826112ba565b915061169c836112ba565b9250826116ac576116ab611657565b5b828204905092915050565b600082825260208201905092915050565b7f43616e6e6f742073657420726f6c65732061667465722076657374696e67206860008201527f6173207374617274656400000000000000000000000000000000000000000000602082015250565b6000611724602a836116b7565b915061172f826116c8565b604082019050919050565b6000602082019050818103600083015261175381611717565b9050919050565b7f43616e6e6f74206164642062656e65666963696172696573206166746572207660008201527f657374696e672068617320737461727465640000000000000000000000000000602082015250565b60006117b66032836116b7565b91506117c18261175a565b604082019050919050565b600060208201905081810360008301526117e5816117a9565b9050919050565b7f42656e656669636961727920726f6c65206e6f74207365740000000000000000600082015250565b60006118226018836116b7565b915061182d826117ec565b602082019050919050565b6000602082019050818103600083015261185181611815565b9050919050565b7f56657374696e67207363686564756c6520616c72656164792065786973747300600082015250565b600061188e601f836116b7565b915061189982611858565b602082019050919050565b600060208201905081810360008301526118bd81611881565b9050919050565b60006060820190506118d96000830186611353565b6118e66020830185611353565b6118f360408301846112c4565b949350505050565b6119048161147b565b811461190f57600080fd5b50565b600081519050611921816118fb565b92915050565b60006020828403121561193d5761193c61122a565b5b600061194b84828501611912565b91505092915050565b7f546f6b656e207472616e73666572206661696c65640000000000000000000000600082015250565b600061198a6015836116b7565b915061199582611954565b602082019050919050565b600060208201905081810360008301526119b98161197d565b9050919050565b7f56657374696e6720686173206e6f742073746172746564207965740000000000600082015250565b60006119f6601b836116b7565b9150611a01826119c0565b602082019050919050565b60006020820190508181036000830152611a25816119e9565b9050919050565b7f4e6f2076657374696e67207363686564756c6520666f756e6400000000000000600082015250565b6000611a626019836116b7565b9150611a6d82611a2c565b602082019050919050565b60006020820190508181036000830152611a9181611a55565b9050919050565b7f436c69666620706572696f64206e6f7420726561636865640000000000000000600082015250565b6000611ace6018836116b7565b9150611ad982611a98565b602082019050919050565b60006020820190508181036000830152611afd81611ac1565b9050919050565b7f4e6f20746f6b656e7320746f2072656c65617365000000000000000000000000600082015250565b6000611b3a6014836116b7565b9150611b4582611b04565b602082019050919050565b60006020820190508181036000830152611b6981611b2d565b9050919050565b6000604082019050611b856000830185611353565b611b9260208301846112c4565b9392505050565b7f56657374696e672068617320616c726561647920737461727465640000000000600082015250565b6000611bcf601b836116b7565b9150611bda82611b99565b602082019050919050565b60006020820190508181036000830152611bfe81611bc2565b905091905056fea264697066735822122057ffc38a85ab0582b8076e7acf242593c9e17e96926e047c535454c3ffbb689864736f6c63430008140033",
          "opcodes": "PUSH1 0x80 PUSH1 0x40 MSTORE PUSH1 0x0 PUSH1 0x1 PUSH1 0x14 PUSH2 0x100 EXP DUP2 SLOAD DUP2 PUSH1 0xFF MUL NOT AND SWAP1 DUP4 ISZERO ISZERO MUL OR SWAP1 SSTORE POP CALLVALUE DUP1 ISZERO PUSH3 0x2C JUMPI PUSH1 0x0 DUP1 REVERT JUMPDEST POP PUSH1 0x40 MLOAD PUSH3 0x1F0F CODESIZE SUB DUP1 PUSH3 0x1F0F DUP4 CODECOPY DUP2 DUP2 ADD PUSH1 0x40 MSTORE DUP2 ADD SWAP1 PUSH3 0x52 SWAP2 SWAP1 PUSH3 0x264 JUMP JUMPDEST CALLER PUSH1 0x0 PUSH20 0xFFFFFFFFFFFFFFFFFFFFFFFFFFFFFFFFFFFFFFFF AND DUP2 PUSH20 0xFFFFFFFFFFFFFFFFFFFFFFFFFFFFFFFFFFFFFFFF AND SUB PUSH3 0xC8 JUMPI PUSH1 0x0 PUSH1 0x40 MLOAD PUSH32 0x1E4FBDF700000000000000000000000000000000000000000000000000000000 DUP2 MSTORE PUSH1 0x4 ADD PUSH3 0xBF SWAP2 SWAP1 PUSH3 0x2A7 JUMP JUMPDEST PUSH1 0x40 MLOAD DUP1 SWAP2 SUB SWAP1 REVERT JUMPDEST PUSH3 0xD9 DUP2 PUSH3 0x122 PUSH1 0x20 SHL PUSH1 0x20 SHR JUMP JUMPDEST POP DUP1 PUSH1 0x1 PUSH1 0x0 PUSH2 0x100 EXP DUP2 SLOAD DUP2 PUSH20 0xFFFFFFFFFFFFFFFFFFFFFFFFFFFFFFFFFFFFFFFF MUL NOT AND SWAP1 DUP4 PUSH20 0xFFFFFFFFFFFFFFFFFFFFFFFFFFFFFFFFFFFFFFFF AND MUL OR SWAP1 SSTORE POP POP PUSH3 0x2C4 JUMP JUMPDEST PUSH1 0x0 DUP1 PUSH1 0x0 SWAP1 SLOAD SWAP1 PUSH2 0x100 EXP SWAP1 DIV PUSH20 0xFFFFFFFFFFFFFFFFFFFFFFFFFFFFFFFFFFFFFFFF AND SWAP1 POP DUP2 PUSH1 0x0 DUP1 PUSH2 0x100 EXP DUP2 SLOAD DUP2 PUSH20 0xFFFFFFFFFFFFFFFFFFFFFFFFFFFFFFFFFFFFFFFF MUL NOT AND SWAP1 DUP4 PUSH20 0xFFFFFFFFFFFFFFFFFFFFFFFFFFFFFFFFFFFFFFFF AND MUL OR SWAP1 SSTORE POP DUP2 PUSH20 0xFFFFFFFFFFFFFFFFFFFFFFFFFFFFFFFFFFFFFFFF AND DUP2 PUSH20 0xFFFFFFFFFFFFFFFFFFFFFFFFFFFFFFFFFFFFFFFF AND PUSH32 0x8BE0079C531659141344CD1FD0A4F28419497F9722A3DAAFE3B4186F6B6457E0 PUSH1 0x40 MLOAD PUSH1 0x40 MLOAD DUP1 SWAP2 SUB SWAP1 LOG3 POP POP JUMP JUMPDEST PUSH1 0x0 DUP1 REVERT JUMPDEST PUSH1 0x0 PUSH20 0xFFFFFFFFFFFFFFFFFFFFFFFFFFFFFFFFFFFFFFFF DUP3 AND SWAP1 POP SWAP2 SWAP1 POP JUMP JUMPDEST PUSH1 0x0 PUSH3 0x218 DUP3 PUSH3 0x1EB JUMP JUMPDEST SWAP1 POP SWAP2 SWAP1 POP JUMP JUMPDEST PUSH1 0x0 PUSH3 0x22C DUP3 PUSH3 0x20B JUMP JUMPDEST SWAP1 POP SWAP2 SWAP1 POP JUMP JUMPDEST PUSH3 0x23E DUP2 PUSH3 0x21F JUMP JUMPDEST DUP2 EQ PUSH3 0x24A JUMPI PUSH1 0x0 DUP1 REVERT JUMPDEST POP JUMP JUMPDEST PUSH1 0x0 DUP2 MLOAD SWAP1 POP PUSH3 0x25E DUP2 PUSH3 0x233 JUMP JUMPDEST SWAP3 SWAP2 POP POP JUMP JUMPDEST PUSH1 0x0 PUSH1 0x20 DUP3 DUP5 SUB SLT ISZERO PUSH3 0x27D JUMPI PUSH3 0x27C PUSH3 0x1E6 JUMP JUMPDEST JUMPDEST PUSH1 0x0 PUSH3 0x28D DUP5 DUP3 DUP6 ADD PUSH3 0x24D JUMP JUMPDEST SWAP2 POP POP SWAP3 SWAP2 POP POP JUMP JUMPDEST PUSH3 0x2A1 DUP2 PUSH3 0x20B JUMP JUMPDEST DUP3 MSTORE POP POP JUMP JUMPDEST PUSH1 0x0 PUSH1 0x20 DUP3 ADD SWAP1 POP PUSH3 0x2BE PUSH1 0x0 DUP4 ADD DUP5 PUSH3 0x296 JUMP JUMPDEST SWAP3 SWAP2 POP POP JUMP JUMPDEST PUSH2 0x1C3B DUP1 PUSH3 0x2D4 PUSH1 0x0 CODECOPY PUSH1 0x0 RETURN INVALID PUSH1 0x80 PUSH1 0x40 MSTORE CALLVALUE DUP1 ISZERO PUSH2 0x10 JUMPI PUSH1 0x0 DUP1 REVERT JUMPDEST POP PUSH1 0x4 CALLDATASIZE LT PUSH2 0x137 JUMPI PUSH1 0x0 CALLDATALOAD PUSH1 0xE0 SHR DUP1 PUSH4 0x8DA5CB5B GT PUSH2 0xB8 JUMPI DUP1 PUSH4 0xDE7C2ED2 GT PUSH2 0x7C JUMPI DUP1 PUSH4 0xDE7C2ED2 EQ PUSH2 0x2F6 JUMPI DUP1 PUSH4 0xDEB36E32 EQ PUSH2 0x314 JUMPI DUP1 PUSH4 0xF2FDE38B EQ PUSH2 0x31E JUMPI DUP1 PUSH4 0xF998C8E8 EQ PUSH2 0x33A JUMPI DUP1 PUSH4 0xFC0C546A EQ PUSH2 0x358 JUMPI DUP1 PUSH4 0xFDB20CCB EQ PUSH2 0x376 JUMPI PUSH2 0x137 JUMP JUMPDEST DUP1 PUSH4 0x8DA5CB5B EQ PUSH2 0x264 JUMPI DUP1 PUSH4 0x96074E70 EQ PUSH2 0x282 JUMPI DUP1 PUSH4 0x99374642 EQ PUSH2 0x29E JUMPI DUP1 PUSH4 0xA334ED02 EQ PUSH2 0x2CE JUMPI DUP1 PUSH4 0xA96F8668 EQ PUSH2 0x2EC JUMPI PUSH2 0x137 JUMP JUMPDEST DUP1 PUSH4 0x702F63E6 GT PUSH2 0xFF JUMPI DUP1 PUSH4 0x702F63E6 EQ PUSH2 0x1E2 JUMPI DUP1 PUSH4 0x715018A6 EQ PUSH2 0x200 JUMPI DUP1 PUSH4 0x79645416 EQ PUSH2 0x20A JUMPI DUP1 PUSH4 0x84D9390A EQ PUSH2 0x228 JUMPI DUP1 PUSH4 0x8B383472 EQ PUSH2 0x246 JUMPI PUSH2 0x137 JUMP JUMPDEST DUP1 PUSH4 0x1726CBC8 EQ PUSH2 0x13C JUMPI DUP1 PUSH4 0x1F85612A EQ PUSH2 0x16C JUMPI DUP1 PUSH4 0x409C881C EQ PUSH2 0x18A JUMPI DUP1 PUSH4 0x55DB189B EQ PUSH2 0x1A8 JUMPI DUP1 PUSH4 0x571C3E60 EQ PUSH2 0x1C6 JUMPI JUMPDEST PUSH1 0x0 DUP1 REVERT JUMPDEST PUSH2 0x156 PUSH1 0x4 DUP1 CALLDATASIZE SUB DUP2 ADD SWAP1 PUSH2 0x151 SWAP2 SWAP1 PUSH2 0x128D JUMP JUMPDEST PUSH2 0x3AA JUMP JUMPDEST PUSH1 0x40 MLOAD PUSH2 0x163 SWAP2 SWAP1 PUSH2 0x12D3 JUMP JUMPDEST PUSH1 0x40 MLOAD DUP1 SWAP2 SUB SWAP1 RETURN JUMPDEST PUSH2 0x174 PUSH2 0x48C JUMP JUMPDEST PUSH1 0x40 MLOAD PUSH2 0x181 SWAP2 SWAP1 PUSH2 0x12D3 JUMP JUMPDEST PUSH1 0x40 MLOAD DUP1 SWAP2 SUB SWAP1 RETURN JUMPDEST PUSH2 0x192 PUSH2 0x494 JUMP JUMPDEST PUSH1 0x40 MLOAD PUSH2 0x19F SWAP2 SWAP1 PUSH2 0x12D3 JUMP JUMPDEST PUSH1 0x40 MLOAD DUP1 SWAP2 SUB SWAP1 RETURN JUMPDEST PUSH2 0x1B0 PUSH2 0x49C JUMP JUMPDEST PUSH1 0x40 MLOAD PUSH2 0x1BD SWAP2 SWAP1 PUSH2 0x12D3 JUMP JUMPDEST PUSH1 0x40 MLOAD DUP1 SWAP2 SUB SWAP1 RETURN JUMPDEST PUSH2 0x1E0 PUSH1 0x4 DUP1 CALLDATASIZE SUB DUP2 ADD SWAP1 PUSH2 0x1DB SWAP2 SWAP1 PUSH2 0x1313 JUMP JUMPDEST PUSH2 0x4A4 JUMP JUMPDEST STOP JUMPDEST PUSH2 0x1EA PUSH2 0x567 JUMP JUMPDEST PUSH1 0x40 MLOAD PUSH2 0x1F7 SWAP2 SWAP1 PUSH2 0x12D3 JUMP JUMPDEST PUSH1 0x40 MLOAD DUP1 SWAP2 SUB SWAP1 RETURN JUMPDEST PUSH2 0x208 PUSH2 0x56C JUMP JUMPDEST STOP JUMPDEST PUSH2 0x212 PUSH2 0x580 JUMP JUMPDEST PUSH1 0x40 MLOAD PUSH2 0x21F SWAP2 SWAP1 PUSH2 0x12D3 JUMP JUMPDEST PUSH1 0x40 MLOAD DUP1 SWAP2 SUB SWAP1 RETURN JUMPDEST PUSH2 0x230 PUSH2 0x587 JUMP JUMPDEST PUSH1 0x40 MLOAD PUSH2 0x23D SWAP2 SWAP1 PUSH2 0x12D3 JUMP JUMPDEST PUSH1 0x40 MLOAD DUP1 SWAP2 SUB SWAP1 RETURN JUMPDEST PUSH2 0x24E PUSH2 0x58C JUMP JUMPDEST PUSH1 0x40 MLOAD PUSH2 0x25B SWAP2 SWAP1 PUSH2 0x12D3 JUMP JUMPDEST PUSH1 0x40 MLOAD DUP1 SWAP2 SUB SWAP1 RETURN JUMPDEST PUSH2 0x26C PUSH2 0x591 JUMP JUMPDEST PUSH1 0x40 MLOAD PUSH2 0x279 SWAP2 SWAP1 PUSH2 0x1362 JUMP JUMPDEST PUSH1 0x40 MLOAD DUP1 SWAP2 SUB SWAP1 RETURN JUMPDEST PUSH2 0x29C PUSH1 0x4 DUP1 CALLDATASIZE SUB DUP2 ADD SWAP1 PUSH2 0x297 SWAP2 SWAP1 PUSH2 0x13A9 JUMP JUMPDEST PUSH2 0x5BA JUMP JUMPDEST STOP JUMPDEST PUSH2 0x2B8 PUSH1 0x4 DUP1 CALLDATASIZE SUB DUP2 ADD SWAP1 PUSH2 0x2B3 SWAP2 SWAP1 PUSH2 0x128D JUMP JUMPDEST PUSH2 0xA9A JUMP JUMPDEST PUSH1 0x40 MLOAD PUSH2 0x2C5 SWAP2 SWAP1 PUSH2 0x1460 JUMP JUMPDEST PUSH1 0x40 MLOAD DUP1 SWAP2 SUB SWAP1 RETURN JUMPDEST PUSH2 0x2D6 PUSH2 0xABA JUMP JUMPDEST PUSH1 0x40 MLOAD PUSH2 0x2E3 SWAP2 SWAP1 PUSH2 0x12D3 JUMP JUMPDEST PUSH1 0x40 MLOAD DUP1 SWAP2 SUB SWAP1 RETURN JUMPDEST PUSH2 0x2F4 PUSH2 0xAC1 JUMP JUMPDEST STOP JUMPDEST PUSH2 0x2FE PUSH2 0xD9A JUMP JUMPDEST PUSH1 0x40 MLOAD PUSH2 0x30B SWAP2 SWAP1 PUSH2 0x12D3 JUMP JUMPDEST PUSH1 0x40 MLOAD DUP1 SWAP2 SUB SWAP1 RETURN JUMPDEST PUSH2 0x31C PUSH2 0xDA2 JUMP JUMPDEST STOP JUMPDEST PUSH2 0x338 PUSH1 0x4 DUP1 CALLDATASIZE SUB DUP2 ADD SWAP1 PUSH2 0x333 SWAP2 SWAP1 PUSH2 0x128D JUMP JUMPDEST PUSH2 0xE4D JUMP JUMPDEST STOP JUMPDEST PUSH2 0x342 PUSH2 0xED3 JUMP JUMPDEST PUSH1 0x40 MLOAD PUSH2 0x34F SWAP2 SWAP1 PUSH2 0x1496 JUMP JUMPDEST PUSH1 0x40 MLOAD DUP1 SWAP2 SUB SWAP1 RETURN JUMPDEST PUSH2 0x360 PUSH2 0xEE6 JUMP JUMPDEST PUSH1 0x40 MLOAD PUSH2 0x36D SWAP2 SWAP1 PUSH2 0x1510 JUMP JUMPDEST PUSH1 0x40 MLOAD DUP1 SWAP2 SUB SWAP1 RETURN JUMPDEST PUSH2 0x390 PUSH1 0x4 DUP1 CALLDATASIZE SUB DUP2 ADD SWAP1 PUSH2 0x38B SWAP2 SWAP1 PUSH2 0x128D JUMP JUMPDEST PUSH2 0xF0C JUMP JUMPDEST PUSH1 0x40 MLOAD PUSH2 0x3A1 SWAP6 SWAP5 SWAP4 SWAP3 SWAP2 SWAP1 PUSH2 0x152B JUMP JUMPDEST PUSH1 0x40 MLOAD DUP1 SWAP2 SUB SWAP1 RETURN JUMPDEST PUSH1 0x0 DUP1 PUSH1 0x2 PUSH1 0x0 DUP5 PUSH20 0xFFFFFFFFFFFFFFFFFFFFFFFFFFFFFFFFFFFFFFFF AND PUSH20 0xFFFFFFFFFFFFFFFFFFFFFFFFFFFFFFFFFFFFFFFF AND DUP2 MSTORE PUSH1 0x20 ADD SWAP1 DUP2 MSTORE PUSH1 0x20 ADD PUSH1 0x0 KECCAK256 SWAP1 POP DUP1 PUSH1 0x3 ADD SLOAD TIMESTAMP LT ISZERO PUSH2 0x404 JUMPI PUSH1 0x0 SWAP2 POP POP PUSH2 0x487 JUMP JUMPDEST DUP1 PUSH1 0x4 ADD SLOAD DUP2 PUSH1 0x2 ADD SLOAD PUSH2 0x418 SWAP2 SWAP1 PUSH2 0x15AD JUMP JUMPDEST TIMESTAMP LT PUSH2 0x43A JUMPI DUP1 PUSH1 0x1 ADD SLOAD DUP2 PUSH1 0x0 ADD SLOAD PUSH2 0x432 SWAP2 SWAP1 PUSH2 0x15E1 JUMP JUMPDEST SWAP2 POP POP PUSH2 0x487 JUMP JUMPDEST PUSH1 0x0 DUP2 PUSH1 0x2 ADD SLOAD TIMESTAMP PUSH2 0x44C SWAP2 SWAP1 PUSH2 0x15E1 JUMP JUMPDEST SWAP1 POP PUSH1 0x0 DUP3 PUSH1 0x4 ADD SLOAD DUP3 DUP5 PUSH1 0x0 ADD SLOAD PUSH2 0x465 SWAP2 SWAP1 PUSH2 0x1615 JUMP JUMPDEST PUSH2 0x46F SWAP2 SWAP1 PUSH2 0x1686 JUMP JUMPDEST SWAP1 POP DUP3 PUSH1 0x1 ADD SLOAD DUP2 PUSH2 0x481 SWAP2 SWAP1 PUSH2 0x15E1 JUMP JUMPDEST SWAP4 POP POP POP POP JUMPDEST SWAP2 SWAP1 POP JUMP JUMPDEST PUSH4 0x1E13380 DUP2 JUMP JUMPDEST PUSH4 0x18B8200 DUP2 JUMP JUMPDEST PUSH4 0x3C26700 DUP2 JUMP JUMPDEST PUSH2 0x4AC PUSH2 0xF42 JUMP JUMPDEST PUSH1 0x1 PUSH1 0x14 SWAP1 SLOAD SWAP1 PUSH2 0x100 EXP SWAP1 DIV PUSH1 0xFF AND ISZERO PUSH2 0x4FC JUMPI PUSH1 0x40 MLOAD PUSH32 0x8C379A000000000000000000000000000000000000000000000000000000000 DUP2 MSTORE PUSH1 0x4 ADD PUSH2 0x4F3 SWAP1 PUSH2 0x173A JUMP JUMPDEST PUSH1 0x40 MLOAD DUP1 SWAP2 SUB SWAP1 REVERT JUMPDEST DUP1 PUSH1 0x3 PUSH1 0x0 DUP5 PUSH20 0xFFFFFFFFFFFFFFFFFFFFFFFFFFFFFFFFFFFFFFFF AND PUSH20 0xFFFFFFFFFFFFFFFFFFFFFFFFFFFFFFFFFFFFFFFF AND DUP2 MSTORE PUSH1 0x20 ADD SWAP1 DUP2 MSTORE PUSH1 0x20 ADD PUSH1 0x0 KECCAK256 PUSH1 0x0 PUSH2 0x100 EXP DUP2 SLOAD DUP2 PUSH1 0xFF MUL NOT AND SWAP1 DUP4 PUSH1 0x3 DUP2 GT ISZERO PUSH2 0x55E JUMPI PUSH2 0x55D PUSH2 0x13E9 JUMP JUMPDEST JUMPDEST MUL OR SWAP1 SSTORE POP POP POP JUMP JUMPDEST PUSH1 0x32 DUP2 JUMP JUMPDEST PUSH2 0x574 PUSH2 0xF42 JUMP JUMPDEST PUSH2 0x57E PUSH1 0x0 PUSH2 0xFC9 JUMP JUMPDEST JUMP JUMPDEST PUSH3 0x4F1A00 DUP2 JUMP JUMPDEST PUSH1 0x19 DUP2 JUMP JUMPDEST PUSH1 0x19 DUP2 JUMP JUMPDEST PUSH1 0x0 DUP1 PUSH1 0x0 SWAP1 SLOAD SWAP1 PUSH2 0x100 EXP SWAP1 DIV PUSH20 0xFFFFFFFFFFFFFFFFFFFFFFFFFFFFFFFFFFFFFFFF AND SWAP1 POP SWAP1 JUMP JUMPDEST PUSH2 0x5C2 PUSH2 0xF42 JUMP JUMPDEST PUSH1 0x1 PUSH1 0x14 SWAP1 SLOAD SWAP1 PUSH2 0x100 EXP SWAP1 DIV PUSH1 0xFF AND ISZERO PUSH2 0x612 JUMPI PUSH1 0x40 MLOAD PUSH32 0x8C379A000000000000000000000000000000000000000000000000000000000 DUP2 MSTORE PUSH1 0x4 ADD PUSH2 0x609 SWAP1 PUSH2 0x17CC JUMP JUMPDEST PUSH1 0x40 MLOAD DUP1 SWAP2 SUB SWAP1 REVERT JUMPDEST PUSH1 0x0 PUSH1 0x3 DUP2 GT ISZERO PUSH2 0x626 JUMPI PUSH2 0x625 PUSH2 0x13E9 JUMP JUMPDEST JUMPDEST PUSH1 0x3 PUSH1 0x0 DUP5 PUSH20 0xFFFFFFFFFFFFFFFFFFFFFFFFFFFFFFFFFFFFFFFF AND PUSH20 0xFFFFFFFFFFFFFFFFFFFFFFFFFFFFFFFFFFFFFFFF AND DUP2 MSTORE PUSH1 0x20 ADD SWAP1 DUP2 MSTORE PUSH1 0x20 ADD PUSH1 0x0 KECCAK256 PUSH1 0x0 SWAP1 SLOAD SWAP1 PUSH2 0x100 EXP SWAP1 DIV PUSH1 0xFF AND PUSH1 0x3 DUP2 GT ISZERO PUSH2 0x685 JUMPI PUSH2 0x684 PUSH2 0x13E9 JUMP JUMPDEST JUMPDEST SUB PUSH2 0x6C5 JUMPI PUSH1 0x40 MLOAD PUSH32 0x8C379A000000000000000000000000000000000000000000000000000000000 DUP2 MSTORE PUSH1 0x4 ADD PUSH2 0x6BC SWAP1 PUSH2 0x1838 JUMP JUMPDEST PUSH1 0x40 MLOAD DUP1 SWAP2 SUB SWAP1 REVERT JUMPDEST PUSH1 0x0 PUSH1 0x2 PUSH1 0x0 DUP5 PUSH20 0xFFFFFFFFFFFFFFFFFFFFFFFFFFFFFFFFFFFFFFFF AND PUSH20 0xFFFFFFFFFFFFFFFFFFFFFFFFFFFFFFFFFFFFFFFF AND DUP2 MSTORE PUSH1 0x20 ADD SWAP1 DUP2 MSTORE PUSH1 0x20 ADD PUSH1 0x0 KECCAK256 PUSH1 0x0 ADD SLOAD EQ PUSH2 0x74A JUMPI PUSH1 0x40 MLOAD PUSH32 0x8C379A000000000000000000000000000000000000000000000000000000000 DUP2 MSTORE PUSH1 0x4 ADD PUSH2 0x741 SWAP1 PUSH2 0x18A4 JUMP JUMPDEST PUSH1 0x40 MLOAD DUP1 SWAP2 SUB SWAP1 REVERT JUMPDEST PUSH1 0x0 DUP1 PUSH1 0x0 PUSH1 0x1 PUSH1 0x3 DUP2 GT ISZERO PUSH2 0x763 JUMPI PUSH2 0x762 PUSH2 0x13E9 JUMP JUMPDEST JUMPDEST PUSH1 0x3 PUSH1 0x0 DUP8 PUSH20 0xFFFFFFFFFFFFFFFFFFFFFFFFFFFFFFFFFFFFFFFF AND PUSH20 0xFFFFFFFFFFFFFFFFFFFFFFFFFFFFFFFFFFFFFFFF AND DUP2 MSTORE PUSH1 0x20 ADD SWAP1 DUP2 MSTORE PUSH1 0x20 ADD PUSH1 0x0 KECCAK256 PUSH1 0x0 SWAP1 SLOAD SWAP1 PUSH2 0x100 EXP SWAP1 DIV PUSH1 0xFF AND PUSH1 0x3 DUP2 GT ISZERO PUSH2 0x7C2 JUMPI PUSH2 0x7C1 PUSH2 0x13E9 JUMP JUMPDEST JUMPDEST SUB PUSH2 0x7DE JUMPI PUSH4 0x18B8200 SWAP3 POP PUSH4 0x3C26700 SWAP2 POP PUSH1 0x32 SWAP1 POP PUSH2 0x8F7 JUMP JUMPDEST PUSH1 0x2 PUSH1 0x3 DUP2 GT ISZERO PUSH2 0x7F2 JUMPI PUSH2 0x7F1 PUSH2 0x13E9 JUMP JUMPDEST JUMPDEST PUSH1 0x3 PUSH1 0x0 DUP8 PUSH20 0xFFFFFFFFFFFFFFFFFFFFFFFFFFFFFFFFFFFFFFFF AND PUSH20 0xFFFFFFFFFFFFFFFFFFFFFFFFFFFFFFFFFFFFFFFF AND DUP2 MSTORE PUSH1 0x20 ADD SWAP1 DUP2 MSTORE PUSH1 0x20 ADD PUSH1 0x0 KECCAK256 PUSH1 0x0 SWAP1 SLOAD SWAP1 PUSH2 0x100 EXP SWAP1 DIV PUSH1 0xFF AND PUSH1 0x3 DUP2 GT ISZERO PUSH2 0x851 JUMPI PUSH2 0x850 PUSH2 0x13E9 JUMP JUMPDEST JUMPDEST SUB PUSH2 0x86C JUMPI PUSH3 0x4F1A00 SWAP3 POP PUSH4 0x1E13380 SWAP2 POP PUSH1 0x19 SWAP1 POP PUSH2 0x8F6 JUMP JUMPDEST PUSH1 0x3 DUP1 DUP2 GT ISZERO PUSH2 0x87F JUMPI PUSH2 0x87E PUSH2 0x13E9 JUMP JUMPDEST JUMPDEST PUSH1 0x3 PUSH1 0x0 DUP8 PUSH20 0xFFFFFFFFFFFFFFFFFFFFFFFFFFFFFFFFFFFFFFFF AND PUSH20 0xFFFFFFFFFFFFFFFFFFFFFFFFFFFFFFFFFFFFFFFF AND DUP2 MSTORE PUSH1 0x20 ADD SWAP1 DUP2 MSTORE PUSH1 0x20 ADD PUSH1 0x0 KECCAK256 PUSH1 0x0 SWAP1 SLOAD SWAP1 PUSH2 0x100 EXP SWAP1 DIV PUSH1 0xFF AND PUSH1 0x3 DUP2 GT ISZERO PUSH2 0x8DE JUMPI PUSH2 0x8DD PUSH2 0x13E9 JUMP JUMPDEST JUMPDEST SUB PUSH2 0x8F5 JUMPI PUSH3 0x4F1A00 SWAP3 POP PUSH4 0x1E13380 SWAP2 POP PUSH1 0x19 SWAP1 POP JUMPDEST JUMPDEST JUMPDEST PUSH1 0x0 PUSH1 0x64 DUP3 DUP7 PUSH2 0x907 SWAP2 SWAP1 PUSH2 0x1615 JUMP JUMPDEST PUSH2 0x911 SWAP2 SWAP1 PUSH2 0x1686 JUMP JUMPDEST SWAP1 POP PUSH1 0x40 MLOAD DUP1 PUSH1 0xA0 ADD PUSH1 0x40 MSTORE DUP1 DUP3 DUP2 MSTORE PUSH1 0x20 ADD PUSH1 0x0 DUP2 MSTORE PUSH1 0x20 ADD PUSH1 0x0 DUP2 MSTORE PUSH1 0x20 ADD PUSH1 0x0 DUP2 MSTORE PUSH1 0x20 ADD DUP5 DUP2 MSTORE POP PUSH1 0x2 PUSH1 0x0 DUP9 PUSH20 0xFFFFFFFFFFFFFFFFFFFFFFFFFFFFFFFFFFFFFFFF AND PUSH20 0xFFFFFFFFFFFFFFFFFFFFFFFFFFFFFFFFFFFFFFFF AND DUP2 MSTORE PUSH1 0x20 ADD SWAP1 DUP2 MSTORE PUSH1 0x20 ADD PUSH1 0x0 KECCAK256 PUSH1 0x0 DUP3 ADD MLOAD DUP2 PUSH1 0x0 ADD SSTORE PUSH1 0x20 DUP3 ADD MLOAD DUP2 PUSH1 0x1 ADD SSTORE PUSH1 0x40 DUP3 ADD MLOAD DUP2 PUSH1 0x2 ADD SSTORE PUSH1 0x60 DUP3 ADD MLOAD DUP2 PUSH1 0x3 ADD SSTORE PUSH1 0x80 DUP3 ADD MLOAD DUP2 PUSH1 0x4 ADD SSTORE SWAP1 POP POP PUSH1 0x1 PUSH1 0x0 SWAP1 SLOAD SWAP1 PUSH2 0x100 EXP SWAP1 DIV PUSH20 0xFFFFFFFFFFFFFFFFFFFFFFFFFFFFFFFFFFFFFFFF AND PUSH20 0xFFFFFFFFFFFFFFFFFFFFFFFFFFFFFFFFFFFFFFFF AND PUSH4 0x23B872DD CALLER ADDRESS DUP5 PUSH1 0x40 MLOAD DUP5 PUSH4 0xFFFFFFFF AND PUSH1 0xE0 SHL DUP2 MSTORE PUSH1 0x4 ADD PUSH2 0xA10 SWAP4 SWAP3 SWAP2 SWAP1 PUSH2 0x18C4 JUMP JUMPDEST PUSH1 0x20 PUSH1 0x40 MLOAD DUP1 DUP4 SUB DUP2 PUSH1 0x0 DUP8 GAS CALL ISZERO DUP1 ISZERO PUSH2 0xA2F JUMPI RETURNDATASIZE PUSH1 0x0 DUP1 RETURNDATACOPY RETURNDATASIZE PUSH1 0x0 REVERT JUMPDEST POP POP POP POP PUSH1 0x40 MLOAD RETURNDATASIZE PUSH1 0x1F NOT PUSH1 0x1F DUP3 ADD AND DUP3 ADD DUP1 PUSH1 0x40 MSTORE POP DUP2 ADD SWAP1 PUSH2 0xA53 SWAP2 SWAP1 PUSH2 0x1927 JUMP JUMPDEST PUSH2 0xA92 JUMPI PUSH1 0x40 MLOAD PUSH32 0x8C379A000000000000000000000000000000000000000000000000000000000 DUP2 MSTORE PUSH1 0x4 ADD PUSH2 0xA89 SWAP1 PUSH2 0x19A0 JUMP JUMPDEST PUSH1 0x40 MLOAD DUP1 SWAP2 SUB SWAP1 REVERT JUMPDEST POP POP POP POP POP POP JUMP JUMPDEST PUSH1 0x3 PUSH1 0x20 MSTORE DUP1 PUSH1 0x0 MSTORE PUSH1 0x40 PUSH1 0x0 KECCAK256 PUSH1 0x0 SWAP2 POP SLOAD SWAP1 PUSH2 0x100 EXP SWAP1 DIV PUSH1 0xFF AND DUP2 JUMP JUMPDEST PUSH3 0x4F1A00 DUP2 JUMP JUMPDEST PUSH1 0x1 PUSH1 0x14 SWAP1 SLOAD SWAP1 PUSH2 0x100 EXP SWAP1 DIV PUSH1 0xFF AND PUSH2 0xB10 JUMPI PUSH1 0x40 MLOAD PUSH32 0x8C379A000000000000000000000000000000000000000000000000000000000 DUP2 MSTORE PUSH1 0x4 ADD PUSH2 0xB07 SWAP1 PUSH2 0x1A0C JUMP JUMPDEST PUSH1 0x40 MLOAD DUP1 SWAP2 SUB SWAP1 REVERT JUMPDEST PUSH1 0x0 PUSH1 0x2 PUSH1 0x0 CALLER PUSH20 0xFFFFFFFFFFFFFFFFFFFFFFFFFFFFFFFFFFFFFFFF AND PUSH20 0xFFFFFFFFFFFFFFFFFFFFFFFFFFFFFFFFFFFFFFFF AND DUP2 MSTORE PUSH1 0x20 ADD SWAP1 DUP2 MSTORE PUSH1 0x20 ADD PUSH1 0x0 KECCAK256 SWAP1 POP PUSH1 0x0 DUP2 PUSH1 0x0 ADD SLOAD GT PUSH2 0xB9A JUMPI PUSH1 0x40 MLOAD PUSH32 0x8C379A000000000000000000000000000000000000000000000000000000000 DUP2 MSTORE PUSH1 0x4 ADD PUSH2 0xB91 SWAP1 PUSH2 0x1A78 JUMP JUMPDEST PUSH1 0x40 MLOAD DUP1 SWAP2 SUB SWAP1 REVERT JUMPDEST PUSH1 0x0 DUP2 PUSH1 0x2 ADD SLOAD SUB PUSH2 0xBCC JUMPI TIMESTAMP DUP2 PUSH1 0x2 ADD DUP2 SWAP1 SSTORE POP PUSH2 0xBB8 CALLER PUSH2 0x108D JUMP JUMPDEST TIMESTAMP PUSH2 0xBC3 SWAP2 SWAP1 PUSH2 0x15AD JUMP JUMPDEST DUP2 PUSH1 0x3 ADD DUP2 SWAP1 SSTORE POP JUMPDEST DUP1 PUSH1 0x3 ADD SLOAD TIMESTAMP LT ISZERO PUSH2 0xC13 JUMPI PUSH1 0x40 MLOAD PUSH32 0x8C379A000000000000000000000000000000000000000000000000000000000 DUP2 MSTORE PUSH1 0x4 ADD PUSH2 0xC0A SWAP1 PUSH2 0x1AE4 JUMP JUMPDEST PUSH1 0x40 MLOAD DUP1 SWAP2 SUB SWAP1 REVERT JUMPDEST PUSH1 0x0 PUSH2 0xC1E CALLER PUSH2 0x3AA JUMP JUMPDEST SWAP1 POP PUSH1 0x0 DUP2 GT PUSH2 0xC63 JUMPI PUSH1 0x40 MLOAD PUSH32 0x8C379A000000000000000000000000000000000000000000000000000000000 DUP2 MSTORE PUSH1 0x4 ADD PUSH2 0xC5A SWAP1 PUSH2 0x1B50 JUMP JUMPDEST PUSH1 0x40 MLOAD DUP1 SWAP2 SUB SWAP1 REVERT JUMPDEST DUP1 DUP3 PUSH1 0x1 ADD PUSH1 0x0 DUP3 DUP3 SLOAD PUSH2 0xC77 SWAP2 SWAP1 PUSH2 0x15AD JUMP JUMPDEST SWAP3 POP POP DUP2 SWAP1 SSTORE POP PUSH1 0x1 PUSH1 0x0 SWAP1 SLOAD SWAP1 PUSH2 0x100 EXP SWAP1 DIV PUSH20 0xFFFFFFFFFFFFFFFFFFFFFFFFFFFFFFFFFFFFFFFF AND PUSH20 0xFFFFFFFFFFFFFFFFFFFFFFFFFFFFFFFFFFFFFFFF AND PUSH4 0xA9059CBB CALLER DUP4 PUSH1 0x40 MLOAD DUP4 PUSH4 0xFFFFFFFF AND PUSH1 0xE0 SHL DUP2 MSTORE PUSH1 0x4 ADD PUSH2 0xCDB SWAP3 SWAP2 SWAP1 PUSH2 0x1B70 JUMP JUMPDEST PUSH1 0x20 PUSH1 0x40 MLOAD DUP1 DUP4 SUB DUP2 PUSH1 0x0 DUP8 GAS CALL ISZERO DUP1 ISZERO PUSH2 0xCFA JUMPI RETURNDATASIZE PUSH1 0x0 DUP1 RETURNDATACOPY RETURNDATASIZE PUSH1 0x0 REVERT JUMPDEST POP POP POP POP PUSH1 0x40 MLOAD RETURNDATASIZE PUSH1 0x1F NOT PUSH1 0x1F DUP3 ADD AND DUP3 ADD DUP1 PUSH1 0x40 MSTORE POP DUP2 ADD SWAP1 PUSH2 0xD1E SWAP2 SWAP1 PUSH2 0x1927 JUMP JUMPDEST PUSH2 0xD5D JUMPI PUSH1 0x40 MLOAD PUSH32 0x8C379A000000000000000000000000000000000000000000000000000000000 DUP2 MSTORE PUSH1 0x4 ADD PUSH2 0xD54 SWAP1 PUSH2 0x19A0 JUMP JUMPDEST PUSH1 0x40 MLOAD DUP1 SWAP2 SUB SWAP1 REVERT JUMPDEST PUSH32 0xC7798891864187665AC6DD119286E44EC13F014527AEEB2B8EB3FD413DF93179 CALLER DUP3 PUSH1 0x40 MLOAD PUSH2 0xD8E SWAP3 SWAP2 SWAP1 PUSH2 0x1B70 JUMP JUMPDEST PUSH1 0x40 MLOAD DUP1 SWAP2 SUB SWAP1 LOG1 POP POP JUMP JUMPDEST PUSH4 0x1E13380 DUP2 JUMP JUMPDEST PUSH2 0xDAA PUSH2 0xF42 JUMP JUMPDEST PUSH1 0x1 PUSH1 0x14 SWAP1 SLOAD SWAP1 PUSH2 0x100 EXP SWAP1 DIV PUSH1 0xFF AND ISZERO PUSH2 0xDFA JUMPI PUSH1 0x40 MLOAD PUSH32 0x8C379A000000000000000000000000000000000000000000000000000000000 DUP2 MSTORE PUSH1 0x4 ADD PUSH2 0xDF1 SWAP1 PUSH2 0x1BE5 JUMP JUMPDEST PUSH1 0x40 MLOAD DUP1 SWAP2 SUB SWAP1 REVERT JUMPDEST PUSH1 0x1 DUP1 PUSH1 0x14 PUSH2 0x100 EXP DUP2 SLOAD DUP2 PUSH1 0xFF MUL NOT AND SWAP1 DUP4 ISZERO ISZERO MUL OR SWAP1 SSTORE POP PUSH32 0x3930F04857BA592BA0A6A96942F8350C2415C0A4AA849021AEEFEE98BB55B122 TIMESTAMP PUSH1 0x40 MLOAD PUSH2 0xE43 SWAP2 SWAP1 PUSH2 0x12D3 JUMP JUMPDEST PUSH1 0x40 MLOAD DUP1 SWAP2 SUB SWAP1 LOG1 JUMP JUMPDEST PUSH2 0xE55 PUSH2 0xF42 JUMP JUMPDEST PUSH1 0x0 PUSH20 0xFFFFFFFFFFFFFFFFFFFFFFFFFFFFFFFFFFFFFFFF AND DUP2 PUSH20 0xFFFFFFFFFFFFFFFFFFFFFFFFFFFFFFFFFFFFFFFF AND SUB PUSH2 0xEC7 JUMPI PUSH1 0x0 PUSH1 0x40 MLOAD PUSH32 0x1E4FBDF700000000000000000000000000000000000000000000000000000000 DUP2 MSTORE PUSH1 0x4 ADD PUSH2 0xEBE SWAP2 SWAP1 PUSH2 0x1362 JUMP JUMPDEST PUSH1 0x40 MLOAD DUP1 SWAP2 SUB SWAP1 REVERT JUMPDEST PUSH2 0xED0 DUP2 PUSH2 0xFC9 JUMP JUMPDEST POP JUMP JUMPDEST PUSH1 0x1 PUSH1 0x14 SWAP1 SLOAD SWAP1 PUSH2 0x100 EXP SWAP1 DIV PUSH1 0xFF AND DUP2 JUMP JUMPDEST PUSH1 0x1 PUSH1 0x0 SWAP1 SLOAD SWAP1 PUSH2 0x100 EXP SWAP1 DIV PUSH20 0xFFFFFFFFFFFFFFFFFFFFFFFFFFFFFFFFFFFFFFFF AND DUP2 JUMP JUMPDEST PUSH1 0x2 PUSH1 0x20 MSTORE DUP1 PUSH1 0x0 MSTORE PUSH1 0x40 PUSH1 0x0 KECCAK256 PUSH1 0x0 SWAP2 POP SWAP1 POP DUP1 PUSH1 0x0 ADD SLOAD SWAP1 DUP1 PUSH1 0x1 ADD SLOAD SWAP1 DUP1 PUSH1 0x2 ADD SLOAD SWAP1 DUP1 PUSH1 0x3 ADD SLOAD SWAP1 DUP1 PUSH1 0x4 ADD SLOAD SWAP1 POP DUP6 JUMP JUMPDEST PUSH2 0xF4A PUSH2 0x1222 JUMP JUMPDEST PUSH20 0xFFFFFFFFFFFFFFFFFFFFFFFFFFFFFFFFFFFFFFFF AND PUSH2 0xF68 PUSH2 0x591 JUMP JUMPDEST PUSH20 0xFFFFFFFFFFFFFFFFFFFFFFFFFFFFFFFFFFFFFFFF AND EQ PUSH2 0xFC7 JUMPI PUSH2 0xF8B PUSH2 0x1222 JUMP JUMPDEST PUSH1 0x40 MLOAD PUSH32 0x118CDAA700000000000000000000000000000000000000000000000000000000 DUP2 MSTORE PUSH1 0x4 ADD PUSH2 0xFBE SWAP2 SWAP1 PUSH2 0x1362 JUMP JUMPDEST PUSH1 0x40 MLOAD DUP1 SWAP2 SUB SWAP1 REVERT JUMPDEST JUMP JUMPDEST PUSH1 0x0 DUP1 PUSH1 0x0 SWAP1 SLOAD SWAP1 PUSH2 0x100 EXP SWAP1 DIV PUSH20 0xFFFFFFFFFFFFFFFFFFFFFFFFFFFFFFFFFFFFFFFF AND SWAP1 POP DUP2 PUSH1 0x0 DUP1 PUSH2 0x100 EXP DUP2 SLOAD DUP2 PUSH20 0xFFFFFFFFFFFFFFFFFFFFFFFFFFFFFFFFFFFFFFFF MUL NOT AND SWAP1 DUP4 PUSH20 0xFFFFFFFFFFFFFFFFFFFFFFFFFFFFFFFFFFFFFFFF AND MUL OR SWAP1 SSTORE POP DUP2 PUSH20 0xFFFFFFFFFFFFFFFFFFFFFFFFFFFFFFFFFFFFFFFF AND DUP2 PUSH20 0xFFFFFFFFFFFFFFFFFFFFFFFFFFFFFFFFFFFFFFFF AND PUSH32 0x8BE0079C531659141344CD1FD0A4F28419497F9722A3DAAFE3B4186F6B6457E0 PUSH1 0x40 MLOAD PUSH1 0x40 MLOAD DUP1 SWAP2 SUB SWAP1 LOG3 POP POP JUMP JUMPDEST PUSH1 0x0 PUSH1 0x1 PUSH1 0x3 DUP2 GT ISZERO PUSH2 0x10A3 JUMPI PUSH2 0x10A2 PUSH2 0x13E9 JUMP JUMPDEST JUMPDEST PUSH1 0x3 PUSH1 0x0 DUP5 PUSH20 0xFFFFFFFFFFFFFFFFFFFFFFFFFFFFFFFFFFFFFFFF AND PUSH20 0xFFFFFFFFFFFFFFFFFFFFFFFFFFFFFFFFFFFFFFFF AND DUP2 MSTORE PUSH1 0x20 ADD SWAP1 DUP2 MSTORE PUSH1 0x20 ADD PUSH1 0x0 KECCAK256 PUSH1 0x0 SWAP1 SLOAD SWAP1 PUSH2 0x100 EXP SWAP1 DIV PUSH1 0xFF AND PUSH1 0x3 DUP2 GT ISZERO PUSH2 0x1102 JUMPI PUSH2 0x1101 PUSH2 0x13E9 JUMP JUMPDEST JUMPDEST SUB PUSH2 0x1113 JUMPI PUSH4 0x18B8200 SWAP1 POP PUSH2 0x121D JUMP JUMPDEST PUSH1 0x2 PUSH1 0x3 DUP2 GT ISZERO PUSH2 0x1127 JUMPI PUSH2 0x1126 PUSH2 0x13E9 JUMP JUMPDEST JUMPDEST PUSH1 0x3 PUSH1 0x0 DUP5 PUSH20 0xFFFFFFFFFFFFFFFFFFFFFFFFFFFFFFFFFFFFFFFF AND PUSH20 0xFFFFFFFFFFFFFFFFFFFFFFFFFFFFFFFFFFFFFFFF AND DUP2 MSTORE PUSH1 0x20 ADD SWAP1 DUP2 MSTORE PUSH1 0x20 ADD PUSH1 0x0 KECCAK256 PUSH1 0x0 SWAP1 SLOAD SWAP1 PUSH2 0x100 EXP SWAP1 DIV PUSH1 0xFF AND PUSH1 0x3 DUP2 GT ISZERO PUSH2 0x1186 JUMPI PUSH2 0x1185 PUSH2 0x13E9 JUMP JUMPDEST JUMPDEST SUB PUSH2 0x1196 JUMPI PUSH3 0x4F1A00 SWAP1 POP PUSH2 0x121D JUMP JUMPDEST PUSH1 0x3 DUP1 DUP2 GT ISZERO PUSH2 0x11A9 JUMPI PUSH2 0x11A8 PUSH2 0x13E9 JUMP JUMPDEST JUMPDEST PUSH1 0x3 PUSH1 0x0 DUP5 PUSH20 0xFFFFFFFFFFFFFFFFFFFFFFFFFFFFFFFFFFFFFFFF AND PUSH20 0xFFFFFFFFFFFFFFFFFFFFFFFFFFFFFFFFFFFFFFFF AND DUP2 MSTORE PUSH1 0x20 ADD SWAP1 DUP2 MSTORE PUSH1 0x20 ADD PUSH1 0x0 KECCAK256 PUSH1 0x0 SWAP1 SLOAD SWAP1 PUSH2 0x100 EXP SWAP1 DIV PUSH1 0xFF AND PUSH1 0x3 DUP2 GT ISZERO PUSH2 0x1208 JUMPI PUSH2 0x1207 PUSH2 0x13E9 JUMP JUMPDEST JUMPDEST SUB PUSH2 0x1218 JUMPI PUSH3 0x4F1A00 SWAP1 POP PUSH2 0x121D JUMP JUMPDEST PUSH1 0x0 SWAP1 POP JUMPDEST SWAP2 SWAP1 POP JUMP JUMPDEST PUSH1 0x0 CALLER SWAP1 POP SWAP1 JUMP JUMPDEST PUSH1 0x0 DUP1 REVERT JUMPDEST PUSH1 0x0 PUSH20 0xFFFFFFFFFFFFFFFFFFFFFFFFFFFFFFFFFFFFFFFF DUP3 AND SWAP1 POP SWAP2 SWAP1 POP JUMP JUMPDEST PUSH1 0x0 PUSH2 0x125A DUP3 PUSH2 0x122F JUMP JUMPDEST SWAP1 POP SWAP2 SWAP1 POP JUMP JUMPDEST PUSH2 0x126A DUP2 PUSH2 0x124F JUMP JUMPDEST DUP2 EQ PUSH2 0x1275 JUMPI PUSH1 0x0 DUP1 REVERT JUMPDEST POP JUMP JUMPDEST PUSH1 0x0 DUP2 CALLDATALOAD SWAP1 POP PUSH2 0x1287 DUP2 PUSH2 0x1261 JUMP JUMPDEST SWAP3 SWAP2 POP POP JUMP JUMPDEST PUSH1 0x0 PUSH1 0x20 DUP3 DUP5 SUB SLT ISZERO PUSH2 0x12A3 JUMPI PUSH2 0x12A2 PUSH2 0x122A JUMP JUMPDEST JUMPDEST PUSH1 0x0 PUSH2 0x12B1 DUP5 DUP3 DUP6 ADD PUSH2 0x1278 JUMP JUMPDEST SWAP2 POP POP SWAP3 SWAP2 POP POP JUMP JUMPDEST PUSH1 0x0 DUP2 SWAP1 POP SWAP2 SWAP1 POP JUMP JUMPDEST PUSH2 0x12CD DUP2 PUSH2 0x12BA JUMP JUMPDEST DUP3 MSTORE POP POP JUMP JUMPDEST PUSH1 0x0 PUSH1 0x20 DUP3 ADD SWAP1 POP PUSH2 0x12E8 PUSH1 0x0 DUP4 ADD DUP5 PUSH2 0x12C4 JUMP JUMPDEST SWAP3 SWAP2 POP POP JUMP JUMPDEST PUSH1 0x4 DUP2 LT PUSH2 0x12FB JUMPI PUSH1 0x0 DUP1 REVERT JUMPDEST POP JUMP JUMPDEST PUSH1 0x0 DUP2 CALLDATALOAD SWAP1 POP PUSH2 0x130D DUP2 PUSH2 0x12EE JUMP JUMPDEST SWAP3 SWAP2 POP POP JUMP JUMPDEST PUSH1 0x0 DUP1 PUSH1 0x40 DUP4 DUP6 SUB SLT ISZERO PUSH2 0x132A JUMPI PUSH2 0x1329 PUSH2 0x122A JUMP JUMPDEST JUMPDEST PUSH1 0x0 PUSH2 0x1338 DUP6 DUP3 DUP7 ADD PUSH2 0x1278 JUMP JUMPDEST SWAP3 POP POP PUSH1 0x20 PUSH2 0x1349 DUP6 DUP3 DUP7 ADD PUSH2 0x12FE JUMP JUMPDEST SWAP2 POP POP SWAP3 POP SWAP3 SWAP1 POP JUMP JUMPDEST PUSH2 0x135C DUP2 PUSH2 0x124F JUMP JUMPDEST DUP3 MSTORE POP POP JUMP JUMPDEST PUSH1 0x0 PUSH1 0x20 DUP3 ADD SWAP1 POP PUSH2 0x1377 PUSH1 0x0 DUP4 ADD DUP5 PUSH2 0x1353 JUMP JUMPDEST SWAP3 SWAP2 POP POP JUMP JUMPDEST PUSH2 0x1386 DUP2 PUSH2 0x12BA JUMP JUMPDEST DUP2 EQ PUSH2 0x1391 JUMPI PUSH1 0x0 DUP1 REVERT JUMPDEST POP JUMP JUMPDEST PUSH1 0x0 DUP2 CALLDATALOAD SWAP1 POP PUSH2 0x13A3 DUP2 PUSH2 0x137D JUMP JUMPDEST SWAP3 SWAP2 POP POP JUMP JUMPDEST PUSH1 0x0 DUP1 PUSH1 0x40 DUP4 DUP6 SUB SLT ISZERO PUSH2 0x13C0 JUMPI PUSH2 0x13BF PUSH2 0x122A JUMP JUMPDEST JUMPDEST PUSH1 0x0 PUSH2 0x13CE DUP6 DUP3 DUP7 ADD PUSH2 0x1278 JUMP JUMPDEST SWAP3 POP POP PUSH1 0x20 PUSH2 0x13DF DUP6 DUP3 DUP7 ADD PUSH2 0x1394 JUMP JUMPDEST SWAP2 POP POP SWAP3 POP SWAP3 SWAP1 POP JUMP JUMPDEST PUSH32 0x4E487B7100000000000000000000000000000000000000000000000000000000 PUSH1 0x0 MSTORE PUSH1 0x21 PUSH1 0x4 MSTORE PUSH1 0x24 PUSH1 0x0 REVERT JUMPDEST PUSH1 0x4 DUP2 LT PUSH2 0x1429 JUMPI PUSH2 0x1428 PUSH2 0x13E9 JUMP JUMPDEST JUMPDEST POP JUMP JUMPDEST PUSH1 0x0 DUP2 SWAP1 POP PUSH2 0x143A DUP3 PUSH2 0x1418 JUMP JUMPDEST SWAP2 SWAP1 POP JUMP JUMPDEST PUSH1 0x0 PUSH2 0x144A DUP3 PUSH2 0x142C JUMP JUMPDEST SWAP1 POP SWAP2 SWAP1 POP JUMP JUMPDEST PUSH2 0x145A DUP2 PUSH2 0x143F JUMP JUMPDEST DUP3 MSTORE POP POP JUMP JUMPDEST PUSH1 0x0 PUSH1 0x20 DUP3 ADD SWAP1 POP PUSH2 0x1475 PUSH1 0x0 DUP4 ADD DUP5 PUSH2 0x1451 JUMP JUMPDEST SWAP3 SWAP2 POP POP JUMP JUMPDEST PUSH1 0x0 DUP2 ISZERO ISZERO SWAP1 POP SWAP2 SWAP1 POP JUMP JUMPDEST PUSH2 0x1490 DUP2 PUSH2 0x147B JUMP JUMPDEST DUP3 MSTORE POP POP JUMP JUMPDEST PUSH1 0x0 PUSH1 0x20 DUP3 ADD SWAP1 POP PUSH2 0x14AB PUSH1 0x0 DUP4 ADD DUP5 PUSH2 0x1487 JUMP JUMPDEST SWAP3 SWAP2 POP POP JUMP JUMPDEST PUSH1 0x0 DUP2 SWAP1 POP SWAP2 SWAP1 POP JUMP JUMPDEST PUSH1 0x0 PUSH2 0x14D6 PUSH2 0x14D1 PUSH2 0x14CC DUP5 PUSH2 0x122F JUMP JUMPDEST PUSH2 0x14B1 JUMP JUMPDEST PUSH2 0x122F JUMP JUMPDEST SWAP1 POP SWAP2 SWAP1 POP JUMP JUMPDEST PUSH1 0x0 PUSH2 0x14E8 DUP3 PUSH2 0x14BB JUMP JUMPDEST SWAP1 POP SWAP2 SWAP1 POP JUMP JUMPDEST PUSH1 0x0 PUSH2 0x14FA DUP3 PUSH2 0x14DD JUMP JUMPDEST SWAP1 POP SWAP2 SWAP1 POP JUMP JUMPDEST PUSH2 0x150A DUP2 PUSH2 0x14EF JUMP JUMPDEST DUP3 MSTORE POP POP JUMP JUMPDEST PUSH1 0x0 PUSH1 0x20 DUP3 ADD SWAP1 POP PUSH2 0x1525 PUSH1 0x0 DUP4 ADD DUP5 PUSH2 0x1501 JUMP JUMPDEST SWAP3 SWAP2 POP POP JUMP JUMPDEST PUSH1 0x0 PUSH1 0xA0 DUP3 ADD SWAP1 POP PUSH2 0x1540 PUSH1 0x0 DUP4 ADD DUP9 PUSH2 0x12C4 JUMP JUMPDEST PUSH2 0x154D PUSH1 0x20 DUP4 ADD DUP8 PUSH2 0x12C4 JUMP JUMPDEST PUSH2 0x155A PUSH1 0x40 DUP4 ADD DUP7 PUSH2 0x12C4 JUMP JUMPDEST PUSH2 0x1567 PUSH1 0x60 DUP4 ADD DUP6 PUSH2 0x12C4 JUMP JUMPDEST PUSH2 0x1574 PUSH1 0x80 DUP4 ADD DUP5 PUSH2 0x12C4 JUMP JUMPDEST SWAP7 SWAP6 POP POP POP POP POP POP JUMP JUMPDEST PUSH32 0x4E487B7100000000000000000000000000000000000000000000000000000000 PUSH1 0x0 MSTORE PUSH1 0x11 PUSH1 0x4 MSTORE PUSH1 0x24 PUSH1 0x0 REVERT JUMPDEST PUSH1 0x0 PUSH2 0x15B8 DUP3 PUSH2 0x12BA JUMP JUMPDEST SWAP2 POP PUSH2 0x15C3 DUP4 PUSH2 0x12BA JUMP JUMPDEST SWAP3 POP DUP3 DUP3 ADD SWAP1 POP DUP1 DUP3 GT ISZERO PUSH2 0x15DB JUMPI PUSH2 0x15DA PUSH2 0x157E JUMP JUMPDEST JUMPDEST SWAP3 SWAP2 POP POP JUMP JUMPDEST PUSH1 0x0 PUSH2 0x15EC DUP3 PUSH2 0x12BA JUMP JUMPDEST SWAP2 POP PUSH2 0x15F7 DUP4 PUSH2 0x12BA JUMP JUMPDEST SWAP3 POP DUP3 DUP3 SUB SWAP1 POP DUP2 DUP2 GT ISZERO PUSH2 0x160F JUMPI PUSH2 0x160E PUSH2 0x157E JUMP JUMPDEST JUMPDEST SWAP3 SWAP2 POP POP JUMP JUMPDEST PUSH1 0x0 PUSH2 0x1620 DUP3 PUSH2 0x12BA JUMP JUMPDEST SWAP2 POP PUSH2 0x162B DUP4 PUSH2 0x12BA JUMP JUMPDEST SWAP3 POP DUP3 DUP3 MUL PUSH2 0x1639 DUP2 PUSH2 0x12BA JUMP JUMPDEST SWAP2 POP DUP3 DUP3 DIV DUP5 EQ DUP4 ISZERO OR PUSH2 0x1650 JUMPI PUSH2 0x164F PUSH2 0x157E JUMP JUMPDEST JUMPDEST POP SWAP3 SWAP2 POP POP JUMP JUMPDEST PUSH32 0x4E487B7100000000000000000000000000000000000000000000000000000000 PUSH1 0x0 MSTORE PUSH1 0x12 PUSH1 0x4 MSTORE PUSH1 0x24 PUSH1 0x0 REVERT JUMPDEST PUSH1 0x0 PUSH2 0x1691 DUP3 PUSH2 0x12BA JUMP JUMPDEST SWAP2 POP PUSH2 0x169C DUP4 PUSH2 0x12BA JUMP JUMPDEST SWAP3 POP DUP3 PUSH2 0x16AC JUMPI PUSH2 0x16AB PUSH2 0x1657 JUMP JUMPDEST JUMPDEST DUP3 DUP3 DIV SWAP1 POP SWAP3 SWAP2 POP POP JUMP JUMPDEST PUSH1 0x0 DUP3 DUP3 MSTORE PUSH1 0x20 DUP3 ADD SWAP1 POP SWAP3 SWAP2 POP POP JUMP JUMPDEST PUSH32 0x43616E6E6F742073657420726F6C65732061667465722076657374696E672068 PUSH1 0x0 DUP3 ADD MSTORE PUSH32 0x6173207374617274656400000000000000000000000000000000000000000000 PUSH1 0x20 DUP3 ADD MSTORE POP JUMP JUMPDEST PUSH1 0x0 PUSH2 0x1724 PUSH1 0x2A DUP4 PUSH2 0x16B7 JUMP JUMPDEST SWAP2 POP PUSH2 0x172F DUP3 PUSH2 0x16C8 JUMP JUMPDEST PUSH1 0x40 DUP3 ADD SWAP1 POP SWAP2 SWAP1 POP JUMP JUMPDEST PUSH1 0x0 PUSH1 0x20 DUP3 ADD SWAP1 POP DUP2 DUP2 SUB PUSH1 0x0 DUP4 ADD MSTORE PUSH2 0x1753 DUP2 PUSH2 0x1717 JUMP JUMPDEST SWAP1 POP SWAP2 SWAP1 POP JUMP JUMPDEST PUSH32 0x43616E6E6F74206164642062656E656669636961726965732061667465722076 PUSH1 0x0 DUP3 ADD MSTORE PUSH32 0x657374696E672068617320737461727465640000000000000000000000000000 PUSH1 0x20 DUP3 ADD MSTORE POP JUMP JUMPDEST PUSH1 0x0 PUSH2 0x17B6 PUSH1 0x32 DUP4 PUSH2 0x16B7 JUMP JUMPDEST SWAP2 POP PUSH2 0x17C1 DUP3 PUSH2 0x175A JUMP JUMPDEST PUSH1 0x40 DUP3 ADD SWAP1 POP SWAP2 SWAP1 POP JUMP JUMPDEST PUSH1 0x0 PUSH1 0x20 DUP3 ADD SWAP1 POP DUP2 DUP2 SUB PUSH1 0x0 DUP4 ADD MSTORE PUSH2 0x17E5 DUP2 PUSH2 0x17A9 JUMP JUMPDEST SWAP1 POP SWAP2 SWAP1 POP JUMP JUMPDEST PUSH32 0x42656E656669636961727920726F6C65206E6F74207365740000000000000000 PUSH1 0x0 DUP3 ADD MSTORE POP JUMP JUMPDEST PUSH1 0x0 PUSH2 0x1822 PUSH1 0x18 DUP4 PUSH2 0x16B7 JUMP JUMPDEST SWAP2 POP PUSH2 0x182D DUP3 PUSH2 0x17EC JUMP JUMPDEST PUSH1 0x20 DUP3 ADD SWAP1 POP SWAP2 SWAP1 POP JUMP JUMPDEST PUSH1 0x0 PUSH1 0x20 DUP3 ADD SWAP1 POP DUP2 DUP2 SUB PUSH1 0x0 DUP4 ADD MSTORE PUSH2 0x1851 DUP2 PUSH2 0x1815 JUMP JUMPDEST SWAP1 POP SWAP2 SWAP1 POP JUMP JUMPDEST PUSH32 0x56657374696E67207363686564756C6520616C72656164792065786973747300 PUSH1 0x0 DUP3 ADD MSTORE POP JUMP JUMPDEST PUSH1 0x0 PUSH2 0x188E PUSH1 0x1F DUP4 PUSH2 0x16B7 JUMP JUMPDEST SWAP2 POP PUSH2 0x1899 DUP3 PUSH2 0x1858 JUMP JUMPDEST PUSH1 0x20 DUP3 ADD SWAP1 POP SWAP2 SWAP1 POP JUMP JUMPDEST PUSH1 0x0 PUSH1 0x20 DUP3 ADD SWAP1 POP DUP2 DUP2 SUB PUSH1 0x0 DUP4 ADD MSTORE PUSH2 0x18BD DUP2 PUSH2 0x1881 JUMP JUMPDEST SWAP1 POP SWAP2 SWAP1 POP JUMP JUMPDEST PUSH1 0x0 PUSH1 0x60 DUP3 ADD SWAP1 POP PUSH2 0x18D9 PUSH1 0x0 DUP4 ADD DUP7 PUSH2 0x1353 JUMP JUMPDEST PUSH2 0x18E6 PUSH1 0x20 DUP4 ADD DUP6 PUSH2 0x1353 JUMP JUMPDEST PUSH2 0x18F3 PUSH1 0x40 DUP4 ADD DUP5 PUSH2 0x12C4 JUMP JUMPDEST SWAP5 SWAP4 POP POP POP POP JUMP JUMPDEST PUSH2 0x1904 DUP2 PUSH2 0x147B JUMP JUMPDEST DUP2 EQ PUSH2 0x190F JUMPI PUSH1 0x0 DUP1 REVERT JUMPDEST POP JUMP JUMPDEST PUSH1 0x0 DUP2 MLOAD SWAP1 POP PUSH2 0x1921 DUP2 PUSH2 0x18FB JUMP JUMPDEST SWAP3 SWAP2 POP POP JUMP JUMPDEST PUSH1 0x0 PUSH1 0x20 DUP3 DUP5 SUB SLT ISZERO PUSH2 0x193D JUMPI PUSH2 0x193C PUSH2 0x122A JUMP JUMPDEST JUMPDEST PUSH1 0x0 PUSH2 0x194B DUP5 DUP3 DUP6 ADD PUSH2 0x1912 JUMP JUMPDEST SWAP2 POP POP SWAP3 SWAP2 POP POP JUMP JUMPDEST PUSH32 0x546F6B656E207472616E73666572206661696C65640000000000000000000000 PUSH1 0x0 DUP3 ADD MSTORE POP JUMP JUMPDEST PUSH1 0x0 PUSH2 0x198A PUSH1 0x15 DUP4 PUSH2 0x16B7 JUMP JUMPDEST SWAP2 POP PUSH2 0x1995 DUP3 PUSH2 0x1954 JUMP JUMPDEST PUSH1 0x20 DUP3 ADD SWAP1 POP SWAP2 SWAP1 POP JUMP JUMPDEST PUSH1 0x0 PUSH1 0x20 DUP3 ADD SWAP1 POP DUP2 DUP2 SUB PUSH1 0x0 DUP4 ADD MSTORE PUSH2 0x19B9 DUP2 PUSH2 0x197D JUMP JUMPDEST SWAP1 POP SWAP2 SWAP1 POP JUMP JUMPDEST PUSH32 0x56657374696E6720686173206E6F742073746172746564207965740000000000 PUSH1 0x0 DUP3 ADD MSTORE POP JUMP JUMPDEST PUSH1 0x0 PUSH2 0x19F6 PUSH1 0x1B DUP4 PUSH2 0x16B7 JUMP JUMPDEST SWAP2 POP PUSH2 0x1A01 DUP3 PUSH2 0x19C0 JUMP JUMPDEST PUSH1 0x20 DUP3 ADD SWAP1 POP SWAP2 SWAP1 POP JUMP JUMPDEST PUSH1 0x0 PUSH1 0x20 DUP3 ADD SWAP1 POP DUP2 DUP2 SUB PUSH1 0x0 DUP4 ADD MSTORE PUSH2 0x1A25 DUP2 PUSH2 0x19E9 JUMP JUMPDEST SWAP1 POP SWAP2 SWAP1 POP JUMP JUMPDEST PUSH32 0x4E6F2076657374696E67207363686564756C6520666F756E6400000000000000 PUSH1 0x0 DUP3 ADD MSTORE POP JUMP JUMPDEST PUSH1 0x0 PUSH2 0x1A62 PUSH1 0x19 DUP4 PUSH2 0x16B7 JUMP JUMPDEST SWAP2 POP PUSH2 0x1A6D DUP3 PUSH2 0x1A2C JUMP JUMPDEST PUSH1 0x20 DUP3 ADD SWAP1 POP SWAP2 SWAP1 POP JUMP JUMPDEST PUSH1 0x0 PUSH1 0x20 DUP3 ADD SWAP1 POP DUP2 DUP2 SUB PUSH1 0x0 DUP4 ADD MSTORE PUSH2 0x1A91 DUP2 PUSH2 0x1A55 JUMP JUMPDEST SWAP1 POP SWAP2 SWAP1 POP JUMP JUMPDEST PUSH32 0x436C69666620706572696F64206E6F7420726561636865640000000000000000 PUSH1 0x0 DUP3 ADD MSTORE POP JUMP JUMPDEST PUSH1 0x0 PUSH2 0x1ACE PUSH1 0x18 DUP4 PUSH2 0x16B7 JUMP JUMPDEST SWAP2 POP PUSH2 0x1AD9 DUP3 PUSH2 0x1A98 JUMP JUMPDEST PUSH1 0x20 DUP3 ADD SWAP1 POP SWAP2 SWAP1 POP JUMP JUMPDEST PUSH1 0x0 PUSH1 0x20 DUP3 ADD SWAP1 POP DUP2 DUP2 SUB PUSH1 0x0 DUP4 ADD MSTORE PUSH2 0x1AFD DUP2 PUSH2 0x1AC1 JUMP JUMPDEST SWAP1 POP SWAP2 SWAP1 POP JUMP JUMPDEST PUSH32 0x4E6F20746F6B656E7320746F2072656C65617365000000000000000000000000 PUSH1 0x0 DUP3 ADD MSTORE POP JUMP JUMPDEST PUSH1 0x0 PUSH2 0x1B3A PUSH1 0x14 DUP4 PUSH2 0x16B7 JUMP JUMPDEST SWAP2 POP PUSH2 0x1B45 DUP3 PUSH2 0x1B04 JUMP JUMPDEST PUSH1 0x20 DUP3 ADD SWAP1 POP SWAP2 SWAP1 POP JUMP JUMPDEST PUSH1 0x0 PUSH1 0x20 DUP3 ADD SWAP1 POP DUP2 DUP2 SUB PUSH1 0x0 DUP4 ADD MSTORE PUSH2 0x1B69 DUP2 PUSH2 0x1B2D JUMP JUMPDEST SWAP1 POP SWAP2 SWAP1 POP JUMP JUMPDEST PUSH1 0x0 PUSH1 0x40 DUP3 ADD SWAP1 POP PUSH2 0x1B85 PUSH1 0x0 DUP4 ADD DUP6 PUSH2 0x1353 JUMP JUMPDEST PUSH2 0x1B92 PUSH1 0x20 DUP4 ADD DUP5 PUSH2 0x12C4 JUMP JUMPDEST SWAP4 SWAP3 POP POP POP JUMP JUMPDEST PUSH32 0x56657374696E672068617320616C726561647920737461727465640000000000 PUSH1 0x0 DUP3 ADD MSTORE POP JUMP JUMPDEST PUSH1 0x0 PUSH2 0x1BCF PUSH1 0x1B DUP4 PUSH2 0x16B7 JUMP JUMPDEST SWAP2 POP PUSH2 0x1BDA DUP3 PUSH2 0x1B99 JUMP JUMPDEST PUSH1 0x20 DUP3 ADD SWAP1 POP SWAP2 SWAP1 POP JUMP JUMPDEST PUSH1 0x0 PUSH1 0x20 DUP3 ADD SWAP1 POP DUP2 DUP2 SUB PUSH1 0x0 DUP4 ADD MSTORE PUSH2 0x1BFE DUP2 PUSH2 0x1BC2 JUMP JUMPDEST SWAP1 POP SWAP2 SWAP1 POP JUMP INVALID LOG2 PUSH5 0x6970667358 0x22 SLT KECCAK256 JUMPI SELFDESTRUCT 0xC3 DUP11 DUP6 0xAB SDIV DUP3 0xB8 SMOD PUSH15 0x7ACF242593C9E17E96926E047C5354 SLOAD 0xC3 SELFDESTRUCT 0xBB PUSH9 0x9864736F6C63430008 EQ STOP CALLER "
        },
        "methodIdentifiers": {
          "PARTNER_CLIFF_DURATION()": "79645416",
          "PARTNER_PERCENTAGE()": "8b383472",
          "PARTNER_VESTING_DURATION()": "1f85612a",
          "TEAM_CLIFF_DURATION()": "a334ed02",
          "TEAM_PERCENTAGE()": "84d9390a",
          "TEAM_VESTING_DURATION()": "de7c2ed2",
          "USER_CLIFF_DURATION()": "409c881c",
          "USER_PERCENTAGE()": "702f63e6",
          "USER_VESTING_DURATION()": "55db189b",
          "addBeneficiary(address,uint256)": "96074e70",
          "owner()": "8da5cb5b",
          "releasableAmount(address)": "1726cbc8",
          "releaseTokens()": "a96f8668",
          "renounceOwnership()": "715018a6",
          "roles(address)": "99374642",
          "setRole(address,uint8)": "571c3e60",
          "startVesting()": "deb36e32",
          "token()": "fc0c546a",
          "transferOwnership(address)": "f2fde38b",
          "vestingSchedules(address)": "fdb20ccb",
          "vestingStarted()": "f998c8e8"
        }
      }
    }
  }
}