{
  "_format": "hh-sol-artifact-1",
  "contractName": "VestingContract",
  "sourceName": "contracts/Vesting.sol",
  "abi": [
    {
      "inputs": [
        {
          "internalType": "contract ERC20",
          "name": "_token",
          "type": "address"
        }
      ],
      "stateMutability": "nonpayable",
      "type": "constructor"
    },
    {
      "inputs": [
        {
          "internalType": "address",
          "name": "owner",
          "type": "address"
        }
      ],
      "name": "OwnableInvalidOwner",
      "type": "error"
    },
    {
      "inputs": [
        {
          "internalType": "address",
          "name": "account",
          "type": "address"
        }
      ],
      "name": "OwnableUnauthorizedAccount",
      "type": "error"
    },
    {
      "anonymous": false,
      "inputs": [
        {
          "indexed": false,
          "internalType": "address",
          "name": "beneficiary",
          "type": "address"
        },
        {
          "indexed": false,
          "internalType": "enum VestingContract.Role",
          "name": "role",
          "type": "uint8"
        },
        {
          "indexed": false,
          "internalType": "uint256",
          "name": "totalAmount",
          "type": "uint256"
        }
      ],
      "name": "BeneficiaryAdded",
      "type": "event"
    },
    {
      "anonymous": false,
      "inputs": [
        {
          "indexed": true,
          "internalType": "address",
          "name": "previousOwner",
          "type": "address"
        },
        {
          "indexed": true,
          "internalType": "address",
          "name": "newOwner",
          "type": "address"
        }
      ],
      "name": "OwnershipTransferred",
      "type": "event"
    },
    {
      "anonymous": false,
      "inputs": [
        {
          "indexed": false,
          "internalType": "address",
          "name": "beneficiary",
          "type": "address"
        },
        {
          "indexed": false,
          "internalType": "uint256",
          "name": "amount",
          "type": "uint256"
        }
      ],
      "name": "TokensReleased",
      "type": "event"
    },
    {
      "anonymous": false,
      "inputs": [
        {
          "indexed": false,
          "internalType": "uint256",
          "name": "startTime",
          "type": "uint256"
        }
      ],
      "name": "VestingStarted",
      "type": "event"
    },
    {
      "inputs": [],
      "name": "PARTNER_CLIFF_DURATION",
      "outputs": [
        {
          "internalType": "uint256",
          "name": "",
          "type": "uint256"
        }
      ],
      "stateMutability": "view",
      "type": "function"
    },
    {
      "inputs": [],
      "name": "PARTNER_PERCENTAGE",
      "outputs": [
        {
          "internalType": "uint256",
          "name": "",
          "type": "uint256"
        }
      ],
      "stateMutability": "view",
      "type": "function"
    },
    {
      "inputs": [],
      "name": "PARTNER_VESTING_DURATION",
      "outputs": [
        {
          "internalType": "uint256",
          "name": "",
          "type": "uint256"
        }
      ],
      "stateMutability": "view",
      "type": "function"
    },
    {
      "inputs": [],
      "name": "TEAM_CLIFF_DURATION",
      "outputs": [
        {
          "internalType": "uint256",
          "name": "",
          "type": "uint256"
        }
      ],
      "stateMutability": "view",
      "type": "function"
    },
    {
      "inputs": [],
      "name": "TEAM_PERCENTAGE",
      "outputs": [
        {
          "internalType": "uint256",
          "name": "",
          "type": "uint256"
        }
      ],
      "stateMutability": "view",
      "type": "function"
    },
    {
      "inputs": [],
      "name": "TEAM_VESTING_DURATION",
      "outputs": [
        {
          "internalType": "uint256",
          "name": "",
          "type": "uint256"
        }
      ],
      "stateMutability": "view",
      "type": "function"
    },
    {
      "inputs": [],
      "name": "USER_CLIFF_DURATION",
      "outputs": [
        {
          "internalType": "uint256",
          "name": "",
          "type": "uint256"
        }
      ],
      "stateMutability": "view",
      "type": "function"
    },
    {
      "inputs": [],
      "name": "USER_PERCENTAGE",
      "outputs": [
        {
          "internalType": "uint256",
          "name": "",
          "type": "uint256"
        }
      ],
      "stateMutability": "view",
      "type": "function"
    },
    {
      "inputs": [],
      "name": "USER_VESTING_DURATION",
      "outputs": [
        {
          "internalType": "uint256",
          "name": "",
          "type": "uint256"
        }
      ],
      "stateMutability": "view",
      "type": "function"
    },
    {
      "inputs": [
        {
          "internalType": "address",
          "name": "beneficiary",
          "type": "address"
        },
        {
          "internalType": "uint256",
          "name": "totalAmount",
          "type": "uint256"
        }
      ],
      "name": "addBeneficiary",
      "outputs": [],
      "stateMutability": "nonpayable",
      "type": "function"
    },
    {
      "inputs": [],
      "name": "owner",
      "outputs": [
        {
          "internalType": "address",
          "name": "",
          "type": "address"
        }
      ],
      "stateMutability": "view",
      "type": "function"
    },
    {
      "inputs": [
        {
          "internalType": "address",
          "name": "beneficiary",
          "type": "address"
        }
      ],
      "name": "releasableAmount",
      "outputs": [
        {
          "internalType": "uint256",
          "name": "",
          "type": "uint256"
        }
      ],
      "stateMutability": "view",
      "type": "function"
    },
    {
      "inputs": [],
      "name": "releaseTokens",
      "outputs": [],
      "stateMutability": "nonpayable",
      "type": "function"
    },
    {
      "inputs": [],
      "name": "renounceOwnership",
      "outputs": [],
      "stateMutability": "nonpayable",
      "type": "function"
    },
    {
      "inputs": [
        {
          "internalType": "address",
          "name": "",
          "type": "address"
        }
      ],
      "name": "roles",
      "outputs": [
        {
          "internalType": "enum VestingContract.Role",
          "name": "",
          "type": "uint8"
        }
      ],
      "stateMutability": "view",
      "type": "function"
    },
    {
      "inputs": [
        {
          "internalType": "address",
          "name": "beneficiary",
          "type": "address"
        },
        {
          "internalType": "enum VestingContract.Role",
          "name": "role",
          "type": "uint8"
        }
      ],
      "name": "setRole",
      "outputs": [],
      "stateMutability": "nonpayable",
      "type": "function"
    },
    {
      "inputs": [],
      "name": "startVesting",
      "outputs": [],
      "stateMutability": "nonpayable",
      "type": "function"
    },
    {
      "inputs": [],
      "name": "token",
      "outputs": [
        {
          "internalType": "contract ERC20",
          "name": "",
          "type": "address"
        }
      ],
      "stateMutability": "view",
      "type": "function"
    },
    {
      "inputs": [
        {
          "internalType": "address",
          "name": "newOwner",
          "type": "address"
        }
      ],
      "name": "transferOwnership",
      "outputs": [],
      "stateMutability": "nonpayable",
      "type": "function"
    },
    {
      "inputs": [
        {
          "internalType": "address",
          "name": "",
          "type": "address"
        }
      ],
      "name": "vestingSchedules",
      "outputs": [
        {
          "internalType": "uint256",
          "name": "totalAmount",
          "type": "uint256"
        },
        {
          "internalType": "uint256",
          "name": "releasedAmount",
          "type": "uint256"
        },
        {
          "internalType": "uint256",
          "name": "startTime",
          "type": "uint256"
        },
        {
          "internalType": "uint256",
          "name": "cliffTime",
          "type": "uint256"
        },
        {
          "internalType": "uint256",
          "name": "duration",
          "type": "uint256"
        }
      ],
      "stateMutability": "view",
      "type": "function"
    },
    {
      "inputs": [],
      "name": "vestingStarted",
      "outputs": [
        {
          "internalType": "bool",
          "name": "",
          "type": "bool"
        }
      ],
      "stateMutability": "view",
      "type": "function"
    }
  ],
  "bytecode": "0x60806040526000600160146101000a81548160ff0219169083151502179055503480156200002c57600080fd5b5060405162001f0f38038062001f0f833981810160405281019062000052919062000264565b33600073ffffffffffffffffffffffffffffffffffffffff168173ffffffffffffffffffffffffffffffffffffffff1603620000c85760006040517f1e4fbdf7000000000000000000000000000000000000000000000000000000008152600401620000bf9190620002a7565b60405180910390fd5b620000d9816200012260201b60201c565b5080600160006101000a81548173ffffffffffffffffffffffffffffffffffffffff021916908373ffffffffffffffffffffffffffffffffffffffff16021790555050620002c4565b60008060009054906101000a900473ffffffffffffffffffffffffffffffffffffffff169050816000806101000a81548173ffffffffffffffffffffffffffffffffffffffff021916908373ffffffffffffffffffffffffffffffffffffffff1602179055508173ffffffffffffffffffffffffffffffffffffffff168173ffffffffffffffffffffffffffffffffffffffff167f8be0079c531659141344cd1fd0a4f28419497f9722a3daafe3b4186f6b6457e060405160405180910390a35050565b600080fd5b600073ffffffffffffffffffffffffffffffffffffffff82169050919050565b60006200021882620001eb565b9050919050565b60006200022c826200020b565b9050919050565b6200023e816200021f565b81146200024a57600080fd5b50565b6000815190506200025e8162000233565b92915050565b6000602082840312156200027d576200027c620001e6565b5b60006200028d848285016200024d565b91505092915050565b620002a1816200020b565b82525050565b6000602082019050620002be600083018462000296565b92915050565b611c3b80620002d46000396000f3fe608060405234801561001057600080fd5b50600436106101375760003560e01c80638da5cb5b116100b8578063de7c2ed21161007c578063de7c2ed2146102f6578063deb36e3214610314578063f2fde38b1461031e578063f998c8e81461033a578063fc0c546a14610358578063fdb20ccb1461037657610137565b80638da5cb5b1461026457806396074e7014610282578063993746421461029e578063a334ed02146102ce578063a96f8668146102ec57610137565b8063702f63e6116100ff578063702f63e6146101e2578063715018a614610200578063796454161461020a57806384d9390a146102285780638b3834721461024657610137565b80631726cbc81461013c5780631f85612a1461016c578063409c881c1461018a57806355db189b146101a8578063571c3e60146101c6575b600080fd5b6101566004803603810190610151919061128d565b6103aa565b60405161016391906112d3565b60405180910390f35b61017461048c565b60405161018191906112d3565b60405180910390f35b610192610494565b60405161019f91906112d3565b60405180910390f35b6101b061049c565b6040516101bd91906112d3565b60405180910390f35b6101e060048036038101906101db9190611313565b6104a4565b005b6101ea610567565b6040516101f791906112d3565b60405180910390f35b61020861056c565b005b610212610580565b60405161021f91906112d3565b60405180910390f35b610230610587565b60405161023d91906112d3565b60405180910390f35b61024e61058c565b60405161025b91906112d3565b60405180910390f35b61026c610591565b6040516102799190611362565b60405180910390f35b61029c600480360381019061029791906113a9565b6105ba565b005b6102b860048036038101906102b3919061128d565b610a9a565b6040516102c59190611460565b60405180910390f35b6102d6610aba565b6040516102e391906112d3565b60405180910390f35b6102f4610ac1565b005b6102fe610d9a565b60405161030b91906112d3565b60405180910390f35b61031c610da2565b005b6103386004803603810190610333919061128d565b610e4d565b005b610342610ed3565b60405161034f9190611496565b60405180910390f35b610360610ee6565b60405161036d9190611510565b60405180910390f35b610390600480360381019061038b919061128d565b610f0c565b6040516103a195949392919061152b565b60405180910390f35b600080600260008473ffffffffffffffffffffffffffffffffffffffff1673ffffffffffffffffffffffffffffffffffffffff16815260200190815260200160002090508060030154421015610404576000915050610487565b8060040154816002015461041891906115ad565b421061043a578060010154816000015461043291906115e1565b915050610487565b600081600201544261044c91906115e1565b9050600082600401548284600001546104659190611615565b61046f9190611686565b905082600101548161048191906115e1565b93505050505b919050565b6301e1338081565b63018b820081565b6303c2670081565b6104ac610f42565b600160149054906101000a900460ff16156104fc576040517f08c379a00000000000000000000000000000000000000000000000000000000081526004016104f39061173a565b60405180910390fd5b80600360008473ffffffffffffffffffffffffffffffffffffffff1673ffffffffffffffffffffffffffffffffffffffff16815260200190815260200160002060006101000a81548160ff0219169083600381111561055e5761055d6113e9565b5b02179055505050565b603281565b610574610f42565b61057e6000610fc9565b565b624f1a0081565b601981565b601981565b60008060009054906101000a900473ffffffffffffffffffffffffffffffffffffffff16905090565b6105c2610f42565b600160149054906101000a900460ff1615610612576040517f08c379a0000000000000000000000000000000000000000000000000000000008152600401610609906117cc565b60405180910390fd5b60006003811115610626576106256113e9565b5b600360008473ffffffffffffffffffffffffffffffffffffffff1673ffffffffffffffffffffffffffffffffffffffff16815260200190815260200160002060009054906101000a900460ff166003811115610685576106846113e9565b5b036106c5576040517f08c379a00000000000000000000000000000000000000000000000000000000081526004016106bc90611838565b60405180910390fd5b6000600260008473ffffffffffffffffffffffffffffffffffffffff1673ffffffffffffffffffffffffffffffffffffffff168152602001908152602001600020600001541461074a576040517f08c379a0000000000000000000000000000000000000000000000000000000008152600401610741906118a4565b60405180910390fd5b600080600060016003811115610763576107626113e9565b5b600360008773ffffffffffffffffffffffffffffffffffffffff1673ffffffffffffffffffffffffffffffffffffffff16815260200190815260200160002060009054906101000a900460ff1660038111156107c2576107c16113e9565b5b036107de5763018b820092506303c267009150603290506108f7565b600260038111156107f2576107f16113e9565b5b600360008773ffffffffffffffffffffffffffffffffffffffff1673ffffffffffffffffffffffffffffffffffffffff16815260200190815260200160002060009054906101000a900460ff166003811115610851576108506113e9565b5b0361086c57624f1a0092506301e133809150601990506108f6565b60038081111561087f5761087e6113e9565b5b600360008773ffffffffffffffffffffffffffffffffffffffff1673ffffffffffffffffffffffffffffffffffffffff16815260200190815260200160002060009054906101000a900460ff1660038111156108de576108dd6113e9565b5b036108f557624f1a0092506301e133809150601990505b5b5b6000606482866109079190611615565b6109119190611686565b90506040518060a0016040528082815260200160008152602001600081526020016000815260200184815250600260008873ffffffffffffffffffffffffffffffffffffffff1673ffffffffffffffffffffffffffffffffffffffff1681526020019081526020016000206000820151816000015560208201518160010155604082015181600201556060820151816003015560808201518160040155905050600160009054906101000a900473ffffffffffffffffffffffffffffffffffffffff1673ffffffffffffffffffffffffffffffffffffffff166323b872dd3330846040518463ffffffff1660e01b8152600401610a10939291906118c4565b6020604051808303816000875af1158015610a2f573d6000803e3d6000fd5b505050506040513d601f19601f82011682018060405250810190610a539190611927565b610a92576040517f08c379a0000000000000000000000000000000000000000000000000000000008152600401610a89906119a0565b60405180910390fd5b505050505050565b60036020528060005260406000206000915054906101000a900460ff1681565b624f1a0081565b600160149054906101000a900460ff16610b10576040517f08c379a0000000000000000000000000000000000000000000000000000000008152600401610b0790611a0c565b60405180910390fd5b6000600260003373ffffffffffffffffffffffffffffffffffffffff1673ffffffffffffffffffffffffffffffffffffffff16815260200190815260200160002090506000816000015411610b9a576040517f08c379a0000000000000000000000000000000000000000000000000000000008152600401610b9190611a78565b60405180910390fd5b6000816002015403610bcc57428160020181905550610bb83361108d565b42610bc391906115ad565b81600301819055505b8060030154421015610c13576040517f08c379a0000000000000000000000000000000000000000000000000000000008152600401610c0a90611ae4565b60405180910390fd5b6000610c1e336103aa565b905060008111610c63576040517f08c379a0000000000000000000000000000000000000000000000000000000008152600401610c5a90611b50565b60405180910390fd5b80826001016000828254610c7791906115ad565b92505081905550600160009054906101000a900473ffffffffffffffffffffffffffffffffffffffff1673ffffffffffffffffffffffffffffffffffffffff1663a9059cbb33836040518363ffffffff1660e01b8152600401610cdb929190611b70565b6020604051808303816000875af1158015610cfa573d6000803e3d6000fd5b505050506040513d601f19601f82011682018060405250810190610d1e9190611927565b610d5d576040517f08c379a0000000000000000000000000000000000000000000000000000000008152600401610d54906119a0565b60405180910390fd5b7fc7798891864187665ac6dd119286e44ec13f014527aeeb2b8eb3fd413df931793382604051610d8e929190611b70565b60405180910390a15050565b6301e1338081565b610daa610f42565b600160149054906101000a900460ff1615610dfa576040517f08c379a0000000000000000000000000000000000000000000000000000000008152600401610df190611be5565b60405180910390fd5b60018060146101000a81548160ff0219169083151502179055507f3930f04857ba592ba0a6a96942f8350c2415c0a4aa849021aeefee98bb55b12242604051610e4391906112d3565b60405180910390a1565b610e55610f42565b600073ffffffffffffffffffffffffffffffffffffffff168173ffffffffffffffffffffffffffffffffffffffff1603610ec75760006040517f1e4fbdf7000000000000000000000000000000000000000000000000000000008152600401610ebe9190611362565b60405180910390fd5b610ed081610fc9565b50565b600160149054906101000a900460ff1681565b600160009054906101000a900473ffffffffffffffffffffffffffffffffffffffff1681565b60026020528060005260406000206000915090508060000154908060010154908060020154908060030154908060040154905085565b610f4a611222565b73ffffffffffffffffffffffffffffffffffffffff16610f68610591565b73ffffffffffffffffffffffffffffffffffffffff1614610fc757610f8b611222565b6040517f118cdaa7000000000000000000000000000000000000000000000000000000008152600401610fbe9190611362565b60405180910390fd5b565b60008060009054906101000a900473ffffffffffffffffffffffffffffffffffffffff169050816000806101000a81548173ffffffffffffffffffffffffffffffffffffffff021916908373ffffffffffffffffffffffffffffffffffffffff1602179055508173ffffffffffffffffffffffffffffffffffffffff168173ffffffffffffffffffffffffffffffffffffffff167f8be0079c531659141344cd1fd0a4f28419497f9722a3daafe3b4186f6b6457e060405160405180910390a35050565b6000600160038111156110a3576110a26113e9565b5b600360008473ffffffffffffffffffffffffffffffffffffffff1673ffffffffffffffffffffffffffffffffffffffff16815260200190815260200160002060009054906101000a900460ff166003811115611102576111016113e9565b5b036111135763018b8200905061121d565b60026003811115611127576111266113e9565b5b600360008473ffffffffffffffffffffffffffffffffffffffff1673ffffffffffffffffffffffffffffffffffffffff16815260200190815260200160002060009054906101000a900460ff166003811115611186576111856113e9565b5b0361119657624f1a00905061121d565b6003808111156111a9576111a86113e9565b5b600360008473ffffffffffffffffffffffffffffffffffffffff1673ffffffffffffffffffffffffffffffffffffffff16815260200190815260200160002060009054906101000a900460ff166003811115611208576112076113e9565b5b0361121857624f1a00905061121d565b600090505b919050565b600033905090565b600080fd5b600073ffffffffffffffffffffffffffffffffffffffff82169050919050565b600061125a8261122f565b9050919050565b61126a8161124f565b811461127557600080fd5b50565b60008135905061128781611261565b92915050565b6000602082840312156112a3576112a261122a565b5b60006112b184828501611278565b91505092915050565b6000819050919050565b6112cd816112ba565b82525050565b60006020820190506112e860008301846112c4565b92915050565b600481106112fb57600080fd5b50565b60008135905061130d816112ee565b92915050565b6000806040838503121561132a5761132961122a565b5b600061133885828601611278565b9250506020611349858286016112fe565b9150509250929050565b61135c8161124f565b82525050565b60006020820190506113776000830184611353565b92915050565b611386816112ba565b811461139157600080fd5b50565b6000813590506113a38161137d565b92915050565b600080604083850312156113c0576113bf61122a565b5b60006113ce85828601611278565b92505060206113df85828601611394565b9150509250929050565b7f4e487b7100000000000000000000000000000000000000000000000000000000600052602160045260246000fd5b60048110611429576114286113e9565b5b50565b600081905061143a82611418565b919050565b600061144a8261142c565b9050919050565b61145a8161143f565b82525050565b60006020820190506114756000830184611451565b92915050565b60008115159050919050565b6114908161147b565b82525050565b60006020820190506114ab6000830184611487565b92915050565b6000819050919050565b60006114d66114d16114cc8461122f565b6114b1565b61122f565b9050919050565b60006114e8826114bb565b9050919050565b60006114fa826114dd565b9050919050565b61150a816114ef565b82525050565b60006020820190506115256000830184611501565b92915050565b600060a08201905061154060008301886112c4565b61154d60208301876112c4565b61155a60408301866112c4565b61156760608301856112c4565b61157460808301846112c4565b9695505050505050565b7f4e487b7100000000000000000000000000000000000000000000000000000000600052601160045260246000fd5b60006115b8826112ba565b91506115c3836112ba565b92508282019050808211156115db576115da61157e565b5b92915050565b60006115ec826112ba565b91506115f7836112ba565b925082820390508181111561160f5761160e61157e565b5b92915050565b6000611620826112ba565b915061162b836112ba565b9250828202611639816112ba565b915082820484148315176116505761164f61157e565b5b5092915050565b7f4e487b7100000000000000000000000000000000000000000000000000000000600052601260045260246000fd5b6000611691826112ba565b915061169c836112ba565b9250826116ac576116ab611657565b5b828204905092915050565b600082825260208201905092915050565b7f43616e6e6f742073657420726f6c65732061667465722076657374696e67206860008201527f6173207374617274656400000000000000000000000000000000000000000000602082015250565b6000611724602a836116b7565b915061172f826116c8565b604082019050919050565b6000602082019050818103600083015261175381611717565b9050919050565b7f43616e6e6f74206164642062656e65666963696172696573206166746572207660008201527f657374696e672068617320737461727465640000000000000000000000000000602082015250565b60006117b66032836116b7565b91506117c18261175a565b604082019050919050565b600060208201905081810360008301526117e5816117a9565b9050919050565b7f42656e656669636961727920726f6c65206e6f74207365740000000000000000600082015250565b60006118226018836116b7565b915061182d826117ec565b602082019050919050565b6000602082019050818103600083015261185181611815565b9050919050565b7f56657374696e67207363686564756c6520616c72656164792065786973747300600082015250565b600061188e601f836116b7565b915061189982611858565b602082019050919050565b600060208201905081810360008301526118bd81611881565b9050919050565b60006060820190506118d96000830186611353565b6118e66020830185611353565b6118f360408301846112c4565b949350505050565b6119048161147b565b811461190f57600080fd5b50565b600081519050611921816118fb565b92915050565b60006020828403121561193d5761193c61122a565b5b600061194b84828501611912565b91505092915050565b7f546f6b656e207472616e73666572206661696c65640000000000000000000000600082015250565b600061198a6015836116b7565b915061199582611954565b602082019050919050565b600060208201905081810360008301526119b98161197d565b9050919050565b7f56657374696e6720686173206e6f742073746172746564207965740000000000600082015250565b60006119f6601b836116b7565b9150611a01826119c0565b602082019050919050565b60006020820190508181036000830152611a25816119e9565b9050919050565b7f4e6f2076657374696e67207363686564756c6520666f756e6400000000000000600082015250565b6000611a626019836116b7565b9150611a6d82611a2c565b602082019050919050565b60006020820190508181036000830152611a9181611a55565b9050919050565b7f436c69666620706572696f64206e6f7420726561636865640000000000000000600082015250565b6000611ace6018836116b7565b9150611ad982611a98565b602082019050919050565b60006020820190508181036000830152611afd81611ac1565b9050919050565b7f4e6f20746f6b656e7320746f2072656c65617365000000000000000000000000600082015250565b6000611b3a6014836116b7565b9150611b4582611b04565b602082019050919050565b60006020820190508181036000830152611b6981611b2d565b9050919050565b6000604082019050611b856000830185611353565b611b9260208301846112c4565b9392505050565b7f56657374696e672068617320616c726561647920737461727465640000000000600082015250565b6000611bcf601b836116b7565b9150611bda82611b99565b602082019050919050565b60006020820190508181036000830152611bfe81611bc2565b905091905056fea264697066735822122057ffc38a85ab0582b8076e7acf242593c9e17e96926e047c535454c3ffbb689864736f6c63430008140033",
  "linkReferences": {},
  "deployedLinkReferences": {}
}